{
  "contracts/DEVTornado.sol": {
    "DEVTornado": {
      "abi": [
        {
          "inputs": [
            {
              "internalType": "contract IVerifier",
              "name": "_verifier",
              "type": "address"
            },
            {
              "internalType": "contract IHasher",
              "name": "_hasher",
              "type": "address"
            },
            {
              "internalType": "uint256",
              "name": "_denomination",
              "type": "uint256"
            },
            {
              "internalType": "uint32",
              "name": "_merkleTreeHeight",
              "type": "uint32"
            },
            {
              "internalType": "address[]",
              "name": "_owners",
              "type": "address[]"
            }
          ],
          "stateMutability": "nonpayable",
          "type": "constructor"
        },
        {
          "anonymous": false,
          "inputs": [
            {
              "indexed": true,
              "internalType": "bytes32",
              "name": "commitment",
              "type": "bytes32"
            },
            {
              "indexed": false,
              "internalType": "uint32",
              "name": "leafIndex",
              "type": "uint32"
            },
            {
              "indexed": false,
              "internalType": "uint256",
              "name": "timestamp",
              "type": "uint256"
            }
          ],
          "name": "Deposit",
          "type": "event"
        },
        {
          "anonymous": false,
          "inputs": [
            {
              "indexed": false,
              "internalType": "address",
              "name": "to",
              "type": "address"
            },
            {
              "indexed": false,
              "internalType": "bytes32",
              "name": "nullifierHash",
              "type": "bytes32"
            },
            {
              "indexed": true,
              "internalType": "address",
              "name": "relayer",
              "type": "address"
            },
            {
              "indexed": false,
              "internalType": "uint256",
              "name": "fee",
              "type": "uint256"
            }
          ],
          "name": "Withdrawal",
          "type": "event"
        },
        {
          "inputs": [],
          "name": "FIELD_SIZE",
          "outputs": [
            {
              "internalType": "uint256",
              "name": "",
              "type": "uint256"
            }
          ],
          "stateMutability": "view",
          "type": "function"
        },
        {
          "inputs": [],
          "name": "ROOT_HISTORY_SIZE",
          "outputs": [
            {
              "internalType": "uint32",
              "name": "",
              "type": "uint32"
            }
          ],
          "stateMutability": "view",
          "type": "function"
        },
        {
          "inputs": [],
          "name": "ZERO_VALUE",
          "outputs": [
            {
              "internalType": "uint256",
              "name": "",
              "type": "uint256"
            }
          ],
          "stateMutability": "view",
          "type": "function"
        },
        {
          "inputs": [
            {
              "internalType": "address",
              "name": "_newOwner",
              "type": "address"
            }
          ],
          "name": "addOwner",
          "outputs": [],
          "stateMutability": "nonpayable",
          "type": "function"
        },
        {
          "inputs": [
            {
              "internalType": "address",
              "name": "_address",
              "type": "address"
            }
          ],
          "name": "addToWhitelist",
          "outputs": [],
          "stateMutability": "nonpayable",
          "type": "function"
        },
        {
          "inputs": [
            {
              "internalType": "bytes32",
              "name": "",
              "type": "bytes32"
            }
          ],
          "name": "commitments",
          "outputs": [
            {
              "internalType": "bool",
              "name": "",
              "type": "bool"
            }
          ],
          "stateMutability": "view",
          "type": "function"
        },
        {
          "inputs": [],
          "name": "currentRootIndex",
          "outputs": [
            {
              "internalType": "uint32",
              "name": "",
              "type": "uint32"
            }
          ],
          "stateMutability": "view",
          "type": "function"
        },
        {
          "inputs": [],
          "name": "denomination",
          "outputs": [
            {
              "internalType": "uint256",
              "name": "",
              "type": "uint256"
            }
          ],
          "stateMutability": "view",
          "type": "function"
        },
        {
          "inputs": [
            {
              "internalType": "bytes32",
              "name": "_commitment",
              "type": "bytes32"
            }
          ],
          "name": "deposit",
          "outputs": [],
          "stateMutability": "payable",
          "type": "function"
        },
        {
          "inputs": [
            {
              "internalType": "uint256",
              "name": "",
              "type": "uint256"
            }
          ],
          "name": "filledSubtrees",
          "outputs": [
            {
              "internalType": "bytes32",
              "name": "",
              "type": "bytes32"
            }
          ],
          "stateMutability": "view",
          "type": "function"
        },
        {
          "inputs": [],
          "name": "getLastRoot",
          "outputs": [
            {
              "internalType": "bytes32",
              "name": "",
              "type": "bytes32"
            }
          ],
          "stateMutability": "view",
          "type": "function"
        },
        {
          "inputs": [
            {
              "internalType": "contract IHasher",
              "name": "_hasher",
              "type": "address"
            },
            {
              "internalType": "bytes32",
              "name": "_left",
              "type": "bytes32"
            },
            {
              "internalType": "bytes32",
              "name": "_right",
              "type": "bytes32"
            }
          ],
          "name": "hashLeftRight",
          "outputs": [
            {
              "internalType": "bytes32",
              "name": "",
              "type": "bytes32"
            }
          ],
          "stateMutability": "pure",
          "type": "function"
        },
        {
          "inputs": [],
          "name": "hasher",
          "outputs": [
            {
              "internalType": "contract IHasher",
              "name": "",
              "type": "address"
            }
          ],
          "stateMutability": "view",
          "type": "function"
        },
        {
          "inputs": [
            {
              "internalType": "bytes32",
              "name": "_root",
              "type": "bytes32"
            }
          ],
          "name": "isKnownRoot",
          "outputs": [
            {
              "internalType": "bool",
              "name": "",
              "type": "bool"
            }
          ],
          "stateMutability": "view",
          "type": "function"
        },
        {
          "inputs": [
            {
              "internalType": "bytes32",
              "name": "_nullifierHash",
              "type": "bytes32"
            }
          ],
          "name": "isSpent",
          "outputs": [
            {
              "internalType": "bool",
              "name": "",
              "type": "bool"
            }
          ],
          "stateMutability": "view",
          "type": "function"
        },
        {
          "inputs": [
            {
              "internalType": "bytes32[]",
              "name": "_nullifierHashes",
              "type": "bytes32[]"
            }
          ],
          "name": "isSpentArray",
          "outputs": [
            {
              "internalType": "bool[]",
              "name": "spent",
              "type": "bool[]"
            }
          ],
          "stateMutability": "view",
          "type": "function"
        },
        {
          "inputs": [
            {
              "internalType": "address",
              "name": "_address",
              "type": "address"
            }
          ],
          "name": "isWhiteListed",
          "outputs": [
            {
              "internalType": "bool",
              "name": "",
              "type": "bool"
            }
          ],
          "stateMutability": "view",
          "type": "function"
        },
        {
          "inputs": [],
          "name": "levels",
          "outputs": [
            {
              "internalType": "uint32",
              "name": "",
              "type": "uint32"
            }
          ],
          "stateMutability": "view",
          "type": "function"
        },
        {
          "inputs": [],
          "name": "nextIndex",
          "outputs": [
            {
              "internalType": "uint32",
              "name": "",
              "type": "uint32"
            }
          ],
          "stateMutability": "view",
          "type": "function"
        },
        {
          "inputs": [
            {
              "internalType": "bytes32",
              "name": "",
              "type": "bytes32"
            }
          ],
          "name": "nullifierHashes",
          "outputs": [
            {
              "internalType": "bool",
              "name": "",
              "type": "bool"
            }
          ],
          "stateMutability": "view",
          "type": "function"
        },
        {
          "inputs": [],
          "name": "ownerCount",
          "outputs": [
            {
              "internalType": "uint256",
              "name": "",
              "type": "uint256"
            }
          ],
          "stateMutability": "view",
          "type": "function"
        },
        {
          "inputs": [
            {
              "internalType": "address",
              "name": "_address",
              "type": "address"
            }
          ],
          "name": "removeFromWhitelist",
          "outputs": [],
          "stateMutability": "nonpayable",
          "type": "function"
        },
        {
          "inputs": [
            {
              "internalType": "address",
              "name": "_owner",
              "type": "address"
            }
          ],
          "name": "removeOwner",
          "outputs": [],
          "stateMutability": "nonpayable",
          "type": "function"
        },
        {
          "inputs": [
            {
              "internalType": "uint256",
              "name": "",
              "type": "uint256"
            }
          ],
          "name": "roots",
          "outputs": [
            {
              "internalType": "bytes32",
              "name": "",
              "type": "bytes32"
            }
          ],
          "stateMutability": "view",
          "type": "function"
        },
        {
          "inputs": [],
          "name": "verifier",
          "outputs": [
            {
              "internalType": "contract IVerifier",
              "name": "",
              "type": "address"
            }
          ],
          "stateMutability": "view",
          "type": "function"
        },
        {
          "inputs": [
            {
              "internalType": "address",
              "name": "",
              "type": "address"
            }
          ],
          "name": "whiteListAddress",
          "outputs": [
            {
              "internalType": "bool",
              "name": "",
              "type": "bool"
            }
          ],
          "stateMutability": "view",
          "type": "function"
        },
        {
          "inputs": [
            {
              "internalType": "bytes",
              "name": "_proof",
              "type": "bytes"
            },
            {
              "internalType": "bytes32",
              "name": "_root",
              "type": "bytes32"
            },
            {
              "internalType": "bytes32",
              "name": "_nullifierHash",
              "type": "bytes32"
            },
            {
              "internalType": "address payable",
              "name": "_recipient",
              "type": "address"
            },
            {
              "internalType": "address payable",
              "name": "_relayer",
              "type": "address"
            },
            {
              "internalType": "uint256",
              "name": "_fee",
              "type": "uint256"
            },
            {
              "internalType": "uint256",
              "name": "_refund",
              "type": "uint256"
            }
          ],
          "name": "withdraw",
          "outputs": [],
          "stateMutability": "payable",
          "type": "function"
        },
        {
          "inputs": [
            {
              "internalType": "uint256",
              "name": "i",
              "type": "uint256"
            }
          ],
          "name": "zeros",
          "outputs": [
            {
              "internalType": "bytes32",
              "name": "",
              "type": "bytes32"
            }
          ],
          "stateMutability": "pure",
          "type": "function"
        }
      ],
      "evm": {
        "bytecode": {
          "linkReferences": {},
          "object": "60c06040526000600360006101000a81548163ffffffff021916908363ffffffff1602179055506000600360046101000a81548163ffffffff021916908363ffffffff1602179055503480156200005557600080fd5b506040516200351a3803806200351a833981810160405260a08110156200007b57600080fd5b810190808051906020019092919080519060200190929190805190602001909291908051906020019092919080516040519392919084640100000000821115620000c457600080fd5b83820191506020820185811115620000db57600080fd5b8251866020820283011164010000000082111715620000f957600080fd5b8083526020830192505050908051906020019060200280838360005b838110156200013257808201518184015260208101905062000115565b505050509050016040525050508085858585808360008263ffffffff1611620001a7576040517f08c379a0000000000000000000000000000000000000000000000000000000008152600401808060200182810382526023815260200180620034f76023913960400191505060405180910390fd5b60208263ffffffff161062000224576040517f08c379a000000000000000000000000000000000000000000000000000000000815260040180806020018281038252601e8152602001807f5f6c6576656c732073686f756c64206265206c657373207468616e203332000081525060200191505060405180910390fd5b816000806101000a81548163ffffffff021916908363ffffffff1602179055508073ffffffffffffffffffffffffffffffffffffffff1660808173ffffffffffffffffffffffffffffffffffffffff1660601b8152505060005b8263ffffffff168163ffffffff161015620002d557620002aa8163ffffffff166200044a60201b60201c565b600160008363ffffffff1681526020019081526020016000208190555080806001019150506200027e565b50620002f06001830363ffffffff166200044a60201b60201c565b600260008081526020019081526020016000208190555050506001600481905550600082116200036c576040517f08c379a0000000000000000000000000000000000000000000000000000000008152600401808060200182810382526025815260200180620034d26025913960400191505060405180910390fd5b8373ffffffffffffffffffffffffffffffffffffffff1660a08173ffffffffffffffffffffffffffffffffffffffff1660601b81525050816005819055505050505060005b81518110156200043557600160086000848481518110620003ce57fe5b602002602001015173ffffffffffffffffffffffffffffffffffffffff1673ffffffffffffffffffffffffffffffffffffffff16815260200190815260200160002060006101000a81548160ff0219169083151502179055508080600101915050620003b1565b50805160098190555050505050505062000b7c565b60008082141562000481577f2fe54c60d3acabf3343a35b6eba15db4821b340f76e741e2249685ed4899af6c60001b905062000b77565b6001821415620004b7577f256a6135777eee2fd26f54b8b7037a25439d5235caee224154186d2b8a52e31d60001b905062000b77565b6002821415620004ed577f1151949895e82ab19924de92c40a3d6f7bcb60d92b00504b8199613683f0c20060001b905062000b77565b600382141562000523577f20121ee811489ff8d61f09fb89e313f14959a0f28bb428a20dba6b0b068b3bdb60001b905062000b77565b600482141562000559577f0a89ca6ffa14cc462cfedb842c30ed221a50a3d6bf022a6a57dc82ab24c157c960001b905062000b77565b60058214156200058f577f24ca05c2b5cd42e890d6be94c68d0689f4f21c9cec9c0f13fe41d566dfb5495960001b905062000b77565b6006821415620005c5577f1ccb97c932565a92c60156bdba2d08f3bf1377464e025cee765679e604a7315c60001b905062000b77565b6007821415620005fb577f19156fbd7d1a8bf5cba8909367de1b624534ebab4f0f79e003bccdd1b182bdb460001b905062000b77565b600882141562000631577f261af8c1f0912e465744641409f622d466c3920ac6e5ff37e36604cb11dfff8060001b905062000b77565b600982141562000666577e58459724ff6ca5a1652fcbc3e82b93895cf08e975b19beab3f54c217d1c00760001b905062000b77565b600a8214156200069c577f1f04ef20dee48d39984d8eabe768a70eafa6310ad20849d4573c3c40c2ad1e3060001b905062000b77565b600b821415620006d2577f1bea3dec5dab51567ce7e200a30f7ba6d4276aeaa53e2686f962a46c66d511e560001b905062000b77565b600c82141562000708577f0ee0f941e2da4b9e31c3ca97a40d8fa9ce68d97c084177071b3cb46cd3372f0f60001b905062000b77565b600d8214156200073e577f1ca9503e8935884501bbaf20be14eb4c46b89772c97b96e3b2ebf3a36a948bbd60001b905062000b77565b600e82141562000774577f133a80e30697cd55d8f7d4b0965b7be24057ba5dc3da898ee2187232446cb10860001b905062000b77565b600f821415620007aa577f13e6d8fc88839ed76e182c2a779af5b2c0da9dd18c90427a644f7e148a6253b660001b905062000b77565b6010821415620007e0577f1eb16b057a477f4bc8f572ea6bee39561098f78f15bfb3699dcbb7bd8db6185460001b905062000b77565b601182141562000816577f0da2cb16a1ceaabf1c16b838f7a9e3f2a3a3088d9e0a6debaa748114620696ea60001b905062000b77565b60128214156200084c577f24a3b3d822420b14b5d8cb6c28a574f01e98ea9e940551d2ebd75cee12649f9d60001b905062000b77565b601382141562000882577f198622acbd783d1b0d9064105b1fc8e4d8889de95c4c519b3f635809fe6afc0560001b905062000b77565b6014821415620008b8577f29d7ed391256ccc3ea596c86e933b89ff339d25ea8ddced975ae2fe30b5296d460001b905062000b77565b6015821415620008ee577f19be59f2f0413ce78c0c3703a3a5451b1d7f39629fa33abd11548a76065b296760001b905062000b77565b601682141562000924577f1ff3f61797e538b70e619310d33f2a063e7eb59104e112e95738da1254dc345360001b905062000b77565b60178214156200095a577f10c16ae9959cf8358980d9dd9616e48228737310a10e2b6b731c1a548f036c4860001b905062000b77565b601882141562000990577f0ba433a63174a90ac20992e75e3095496812b652685b5e1a2eae0b1bf4e8fcd160001b905062000b77565b6019821415620009c6577f019ddb9df2bc98d987d0dfeca9d2b643deafab8f7036562e627c3667266a044c60001b905062000b77565b601a821415620009fc577f2d3c88b23175c5a5565db928414c66d1912b11acf974b2e644caaac04739ce9960001b905062000b77565b601b82141562000a32577f2eab55f6ae4e66e32c5189eed5c470840863445760f5ed7e7b69b2a62600f35460001b905062000b77565b601c82141562000a67577e2df37a2642621802383cf952bf4dd1f32e05433beeb1fd41031fb7eace979d60001b905062000b77565b601d82141562000a9d577f104aeb41435db66c3e62feccc1d6f5d98d0a0ed75d1374db457cf462e3a1f42760001b905062000b77565b601e82141562000ad3577f1f3c6fd858e9a7d4b0d1f38e256a09d81d5a5e3c963987e2d4b814cfab7c6ebb60001b905062000b77565b601f82141562000b09577f2c7a07d20dff79d01fecedc1134284a8d08436606c93693b67e333f671bf69cc60001b905062000b77565b6040517f08c379a00000000000000000000000000000000000000000000000000000000081526004018080602001828103825260138152602001807f496e646578206f7574206f6620626f756e64730000000000000000000000000081525060200191505060405180910390fd5b919050565b60805160601c60a05160601c61292262000bb060003980610e5452806110ec5250806121ac528061258c52506129226000f3fe6080604052600436106101b75760003560e01c806390eeb02b116100ec578063e43252d71161008a578063ec73295911610064578063ec73295914610993578063ed33639f146109be578063f178e47c146109ff578063fc7e9c6f14610a4e576101b7565b8063e43252d7146108a2578063e5285dcc146108f3578063e829558814610944576101b7565b8063ba70f757116100c6578063ba70f75714610790578063c2b40ae4146107bb578063cd87a3b41461080a578063cf52a7b21461083b576101b7565b806390eeb02b146106565780639fa12d0b14610687578063b214faa514610762576101b7565b80636d9833e311610159578063839df94511610133578063839df945146105105780638ab1d681146105615780638bca6d16146105b25780638ea3099e146105dd576101b7565b80636d9833e3146104075780636f9170f6146104585780637065cb48146104bf576101b7565b806321a0adb61161019557806321a0adb6146102895780632b7ac3f31461036a578063414a37ba146103ab5780634ecf518b146103d6576101b7565b80630db02622146101bc578063173825d9146101e757806317cc915c14610238575b600080fd5b3480156101c857600080fd5b506101d1610a7f565b6040518082815260200191505060405180910390f35b3480156101f357600080fd5b506102366004803603602081101561020a57600080fd5b81019080803573ffffffffffffffffffffffffffffffffffffffff169060200190929190505050610a85565b005b34801561024457600080fd5b506102716004803603602081101561025b57600080fd5b8101908080359060200190929190505050610c2a565b60405180821515815260200191505060405180910390f35b610368600480360360e081101561029f57600080fd5b81019080803590602001906401000000008111156102bc57600080fd5b8201836020820111156102ce57600080fd5b803590602001918460018302840111640100000000831117156102f057600080fd5b90919293919293908035906020019092919080359060200190929190803573ffffffffffffffffffffffffffffffffffffffff169060200190929190803573ffffffffffffffffffffffffffffffffffffffff1690602001909291908035906020019092919080359060200190929190505050610c4a565b005b34801561037657600080fd5b5061037f6110ea565b604051808273ffffffffffffffffffffffffffffffffffffffff16815260200191505060405180910390f35b3480156103b757600080fd5b506103c061110e565b6040518082815260200191505060405180910390f35b3480156103e257600080fd5b506103eb611132565b604051808263ffffffff16815260200191505060405180910390f35b34801561041357600080fd5b506104406004803603602081101561042a57600080fd5b8101908080359060200190929190505050611146565b60405180821515815260200191505060405180910390f35b34801561046457600080fd5b506104a76004803603602081101561047b57600080fd5b81019080803573ffffffffffffffffffffffffffffffffffffffff1690602001909291905050506111e2565b60405180821515815260200191505060405180910390f35b3480156104cb57600080fd5b5061050e600480360360208110156104e257600080fd5b81019080803573ffffffffffffffffffffffffffffffffffffffff169060200190929190505050611238565b005b34801561051c57600080fd5b506105496004803603602081101561053357600080fd5b8101908080359060200190929190505050611424565b60405180821515815260200191505060405180910390f35b34801561056d57600080fd5b506105b06004803603602081101561058457600080fd5b81019080803573ffffffffffffffffffffffffffffffffffffffff169060200190929190505050611444565b005b3480156105be57600080fd5b506105c761149f565b6040518082815260200191505060405180910390f35b3480156105e957600080fd5b506106406004803603606081101561060057600080fd5b81019080803573ffffffffffffffffffffffffffffffffffffffff16906020019092919080359060200190929190803590602001909291905050506114a5565b6040518082815260200191505060405180910390f35b34801561066257600080fd5b5061066b61174d565b604051808263ffffffff16815260200191505060405180910390f35b34801561069357600080fd5b5061070b600480360360208110156106aa57600080fd5b81019080803590602001906401000000008111156106c757600080fd5b8201836020820111156106d957600080fd5b803590602001918460208302840111640100000000831117156106fb57600080fd5b9091929391929390505050611763565b6040518080602001828103825283818151815260200191508051906020019060200280838360005b8381101561074e578082015181840152602081019050610733565b505050509050019250505060405180910390f35b61078e6004803603602081101561077857600080fd5b8101908080359060200190929190505050611814565b005b34801561079c57600080fd5b506107a561199f565b6040518082815260200191505060405180910390f35b3480156107c757600080fd5b506107f4600480360360208110156107de57600080fd5b81019080803590602001909291905050506119d2565b6040518082815260200191505060405180910390f35b34801561081657600080fd5b5061081f6119ea565b604051808263ffffffff16815260200191505060405180910390f35b34801561084757600080fd5b5061088a6004803603602081101561085e57600080fd5b81019080803573ffffffffffffffffffffffffffffffffffffffff1690602001909291905050506119ef565b60405180821515815260200191505060405180910390f35b3480156108ae57600080fd5b506108f1600480360360208110156108c557600080fd5b81019080803573ffffffffffffffffffffffffffffffffffffffff169060200190929190505050611a0f565b005b3480156108ff57600080fd5b5061092c6004803603602081101561091657600080fd5b8101908080359060200190929190505050611a6a565b60405180821515815260200191505060405180910390f35b34801561095057600080fd5b5061097d6004803603602081101561096757600080fd5b8101908080359060200190929190505050611a94565b6040518082815260200191505060405180910390f35b34801561099f57600080fd5b506109a8612186565b6040518082815260200191505060405180910390f35b3480156109ca57600080fd5b506109d36121aa565b604051808273ffffffffffffffffffffffffffffffffffffffff16815260200191505060405180910390f35b348015610a0b57600080fd5b50610a3860048036036020811015610a2257600080fd5b81019080803590602001909291905050506121ce565b6040518082815260200191505060405180910390f35b348015610a5a57600080fd5b50610a636121e6565b604051808263ffffffff16815260200191505060405180910390f35b60095481565b600860003373ffffffffffffffffffffffffffffffffffffffff1673ffffffffffffffffffffffffffffffffffffffff16815260200190815260200160002060009054906101000a900460ff16610b44576040517f08c379a000000000000000000000000000000000000000000000000000000000815260040180806020018281038252600c8152602001807f4e6f7420616e206f776e6572000000000000000000000000000000000000000081525060200191505060405180910390fd5b600160095411610bbc576040517f08c379a000000000000000000000000000000000000000000000000000000000815260040180806020018281038252601c8152602001807f43616e6e6f742072656d6f766520746865206c617374206f776e65720000000081525060200191505060405180910390fd5b6000600860008373ffffffffffffffffffffffffffffffffffffffff1673ffffffffffffffffffffffffffffffffffffffff16815260200190815260200160002060006101000a81548160ff0219169083151502179055506009600081548092919060019003919050555050565b60066020528060005260406000206000915054906101000a900460ff1681565b60026004541415610cc3576040517f08c379a000000000000000000000000000000000000000000000000000000000815260040180806020018281038252601f8152602001807f5265656e7472616e637947756172643a207265656e7472616e742063616c6c0081525060200191505060405180910390fd5b6002600481905550600554821115610d43576040517f08c379a000000000000000000000000000000000000000000000000000000000815260040180806020018281038252601a8152602001807f4665652065786365656473207472616e736665722076616c756500000000000081525060200191505060405180910390fd5b6006600086815260200190815260200160002060009054906101000a900460ff1615610dd7576040517f08c379a000000000000000000000000000000000000000000000000000000000815260040180806020018281038252601f8152602001807f546865206e6f746520686173206265656e20616c7265616479207370656e740081525060200191505060405180910390fd5b610de086611146565b610e52576040517f08c379a000000000000000000000000000000000000000000000000000000000815260040180806020018281038252601c8152602001807f43616e6e6f742066696e6420796f7572206d65726b6c6520726f6f740000000081525060200191505060405180910390fd5b7f000000000000000000000000000000000000000000000000000000000000000073ffffffffffffffffffffffffffffffffffffffff1663695ef6f989896040518060c001604052808b60001c81526020018a60001c81526020018973ffffffffffffffffffffffffffffffffffffffff1681526020018873ffffffffffffffffffffffffffffffffffffffff168152602001878152602001868152506040518463ffffffff1660e01b8152600401808060200183600660200280838360005b83811015610f2d578082015181840152602081019050610f12565b505050509050018281038252858582818152602001925080828437600081840152601f19601f820116905080830192505050945050505050602060405180830381600087803b158015610f7f57600080fd5b505af1158015610f93573d6000803e3d6000fd5b505050506040513d6020811015610fa957600080fd5b810190808051906020019092919050505061102c576040517f08c379a00000000000000000000000000000000000000000000000000000000081526004018080602001828103825260168152602001807f496e76616c69642077697468647261772070726f6f660000000000000000000081525060200191505060405180910390fd5b60016006600087815260200190815260200160002060006101000a81548160ff021916908315150217905550611064848484846121fc565b8273ffffffffffffffffffffffffffffffffffffffff167fe9e508bad6d4c3227e881ca19068f099da81b5164dd6d62b2eaf1e8bc6c34931858785604051808473ffffffffffffffffffffffffffffffffffffffff168152602001838152602001828152602001935050505060405180910390a260016004819055505050505050505050565b7f000000000000000000000000000000000000000000000000000000000000000081565b7f30644e72e131a029b85045b68181585d2833e84879b9709143e1f593f000000181565b60008054906101000a900463ffffffff1681565b60008060001b82141561115c57600090506111dd565b6000600360009054906101000a900463ffffffff16905060008190505b600260008263ffffffff168152602001908152602001600020548414156111a5576001925050506111dd565b60008163ffffffff1614156111b957601e90505b8080600190039150508163ffffffff168163ffffffff161415611179576000925050505b919050565b6000600a60008373ffffffffffffffffffffffffffffffffffffffff1673ffffffffffffffffffffffffffffffffffffffff16815260200190815260200160002060009054906101000a900460ff169050919050565b600860003373ffffffffffffffffffffffffffffffffffffffff1673ffffffffffffffffffffffffffffffffffffffff16815260200190815260200160002060009054906101000a900460ff166112f7576040517f08c379a000000000000000000000000000000000000000000000000000000000815260040180806020018281038252600c8152602001807f4e6f7420616e206f776e6572000000000000000000000000000000000000000081525060200191505060405180910390fd5b600860008273ffffffffffffffffffffffffffffffffffffffff1673ffffffffffffffffffffffffffffffffffffffff16815260200190815260200160002060009054906101000a900460ff16156113b7576040517f08c379a00000000000000000000000000000000000000000000000000000000081526004018080602001828103825260108152602001807f416c726561647920616e206f776e65720000000000000000000000000000000081525060200191505060405180910390fd5b6001600860008373ffffffffffffffffffffffffffffffffffffffff1673ffffffffffffffffffffffffffffffffffffffff16815260200190815260200160002060006101000a81548160ff02191690831515021790555060096000815480929190600101919050555050565b60076020528060005260406000206000915054906101000a900460ff1681565b6000600a60008373ffffffffffffffffffffffffffffffffffffffff1673ffffffffffffffffffffffffffffffffffffffff16815260200190815260200160002060006101000a81548160ff02191690831515021790555050565b60055481565b60007f30644e72e131a029b85045b68181585d2833e84879b9709143e1f593f00000018360001c1061153f576040517f08c379a00000000000000000000000000000000000000000000000000000000081526004018080602001828103825260208152602001807f5f6c6566742073686f756c6420626520696e7369646520746865206669656c6481525060200191505060405180910390fd5b7f30644e72e131a029b85045b68181585d2833e84879b9709143e1f593f00000018260001c106115ba576040517f08c379a00000000000000000000000000000000000000000000000000000000081526004018080602001828103825260218152602001806127ca6021913960400191505060405180910390fd5b60008360001c905060008573ffffffffffffffffffffffffffffffffffffffff1663f47d33b583836040518363ffffffff1660e01b81526004018083815260200182815260200192505050604080518083038186803b15801561161c57600080fd5b505afa158015611630573d6000803e3d6000fd5b505050506040513d604081101561164657600080fd5b81019080805190602001909291908051906020019092919050505080925081935050507f30644e72e131a029b85045b68181585d2833e84879b9709143e1f593f00000018061169157fe5b8460001c830891508573ffffffffffffffffffffffffffffffffffffffff1663f47d33b583836040518363ffffffff1660e01b81526004018083815260200182815260200192505050604080518083038186803b1580156116f157600080fd5b505afa158015611705573d6000803e3d6000fd5b505050506040513d604081101561171b57600080fd5b81019080805190602001909291908051906020019092919050505080925081935050508160001b925050509392505050565b600360009054906101000a900463ffffffff1681565b60608282905067ffffffffffffffff8111801561177f57600080fd5b506040519080825280602002602001820160405280156117ae5781602001602082028036833780820191505090505b50905060005b8383905081101561180d576117da8484838181106117ce57fe5b90506020020135611a6a565b156118005760018282815181106117ed57fe5b6020026020010190151590811515815250505b80806001019150506117b4565b5092915050565b6002600454141561188d576040517f08c379a000000000000000000000000000000000000000000000000000000000815260040180806020018281038252601f8152602001807f5265656e7472616e637947756172643a207265656e7472616e742063616c6c0081525060200191505060405180910390fd5b60026004819055506007600082815260200190815260200160002060009054906101000a900460ff161561190c576040517f08c379a000000000000000000000000000000000000000000000000000000000815260040180806020018281038252602181526020018061281f6021913960400191505060405180910390fd5b600061191782612441565b905060016007600084815260200190815260200160002060006101000a81548160ff02191690831515021790555061194d612676565b817fa945e51eec50ab98c161376f0db4cf2aeba3ec92755fe2fcd388bdbbb80ff1968242604051808363ffffffff1681526020018281526020019250505060405180910390a250600160048190555050565b600060026000600360009054906101000a900463ffffffff1663ffffffff16815260200190815260200160002054905090565b60026020528060005260406000206000915090505481565b601e81565b600a6020528060005260406000206000915054906101000a900460ff1681565b6001600a60008373ffffffffffffffffffffffffffffffffffffffff1673ffffffffffffffffffffffffffffffffffffffff16815260200190815260200160002060006101000a81548160ff02191690831515021790555050565b60006006600083815260200190815260200160002060009054906101000a900460ff169050919050565b600080821415611ac9577f2fe54c60d3acabf3343a35b6eba15db4821b340f76e741e2249685ed4899af6c60001b9050612181565b6001821415611afd577f256a6135777eee2fd26f54b8b7037a25439d5235caee224154186d2b8a52e31d60001b9050612181565b6002821415611b31577f1151949895e82ab19924de92c40a3d6f7bcb60d92b00504b8199613683f0c20060001b9050612181565b6003821415611b65577f20121ee811489ff8d61f09fb89e313f14959a0f28bb428a20dba6b0b068b3bdb60001b9050612181565b6004821415611b99577f0a89ca6ffa14cc462cfedb842c30ed221a50a3d6bf022a6a57dc82ab24c157c960001b9050612181565b6005821415611bcd577f24ca05c2b5cd42e890d6be94c68d0689f4f21c9cec9c0f13fe41d566dfb5495960001b9050612181565b6006821415611c01577f1ccb97c932565a92c60156bdba2d08f3bf1377464e025cee765679e604a7315c60001b9050612181565b6007821415611c35577f19156fbd7d1a8bf5cba8909367de1b624534ebab4f0f79e003bccdd1b182bdb460001b9050612181565b6008821415611c69577f261af8c1f0912e465744641409f622d466c3920ac6e5ff37e36604cb11dfff8060001b9050612181565b6009821415611c9c577e58459724ff6ca5a1652fcbc3e82b93895cf08e975b19beab3f54c217d1c00760001b9050612181565b600a821415611cd0577f1f04ef20dee48d39984d8eabe768a70eafa6310ad20849d4573c3c40c2ad1e3060001b9050612181565b600b821415611d04577f1bea3dec5dab51567ce7e200a30f7ba6d4276aeaa53e2686f962a46c66d511e560001b9050612181565b600c821415611d38577f0ee0f941e2da4b9e31c3ca97a40d8fa9ce68d97c084177071b3cb46cd3372f0f60001b9050612181565b600d821415611d6c577f1ca9503e8935884501bbaf20be14eb4c46b89772c97b96e3b2ebf3a36a948bbd60001b9050612181565b600e821415611da0577f133a80e30697cd55d8f7d4b0965b7be24057ba5dc3da898ee2187232446cb10860001b9050612181565b600f821415611dd4577f13e6d8fc88839ed76e182c2a779af5b2c0da9dd18c90427a644f7e148a6253b660001b9050612181565b6010821415611e08577f1eb16b057a477f4bc8f572ea6bee39561098f78f15bfb3699dcbb7bd8db6185460001b9050612181565b6011821415611e3c577f0da2cb16a1ceaabf1c16b838f7a9e3f2a3a3088d9e0a6debaa748114620696ea60001b9050612181565b6012821415611e70577f24a3b3d822420b14b5d8cb6c28a574f01e98ea9e940551d2ebd75cee12649f9d60001b9050612181565b6013821415611ea4577f198622acbd783d1b0d9064105b1fc8e4d8889de95c4c519b3f635809fe6afc0560001b9050612181565b6014821415611ed8577f29d7ed391256ccc3ea596c86e933b89ff339d25ea8ddced975ae2fe30b5296d460001b9050612181565b6015821415611f0c577f19be59f2f0413ce78c0c3703a3a5451b1d7f39629fa33abd11548a76065b296760001b9050612181565b6016821415611f40577f1ff3f61797e538b70e619310d33f2a063e7eb59104e112e95738da1254dc345360001b9050612181565b6017821415611f74577f10c16ae9959cf8358980d9dd9616e48228737310a10e2b6b731c1a548f036c4860001b9050612181565b6018821415611fa8577f0ba433a63174a90ac20992e75e3095496812b652685b5e1a2eae0b1bf4e8fcd160001b9050612181565b6019821415611fdc577f019ddb9df2bc98d987d0dfeca9d2b643deafab8f7036562e627c3667266a044c60001b9050612181565b601a821415612010577f2d3c88b23175c5a5565db928414c66d1912b11acf974b2e644caaac04739ce9960001b9050612181565b601b821415612044577f2eab55f6ae4e66e32c5189eed5c470840863445760f5ed7e7b69b2a62600f35460001b9050612181565b601c821415612077577e2df37a2642621802383cf952bf4dd1f32e05433beeb1fd41031fb7eace979d60001b9050612181565b601d8214156120ab577f104aeb41435db66c3e62feccc1d6f5d98d0a0ed75d1374db457cf462e3a1f42760001b9050612181565b601e8214156120df577f1f3c6fd858e9a7d4b0d1f38e256a09d81d5a5e3c963987e2d4b814cfab7c6ebb60001b9050612181565b601f821415612113577f2c7a07d20dff79d01fecedc1134284a8d08436606c93693b67e333f671bf69cc60001b9050612181565b6040517f08c379a00000000000000000000000000000000000000000000000000000000081526004018080602001828103825260138152602001807f496e646578206f7574206f6620626f756e64730000000000000000000000000081525060200191505060405180910390fd5b919050565b7f2fe54c60d3acabf3343a35b6eba15db4821b340f76e741e2249685ed4899af6c81565b7f000000000000000000000000000000000000000000000000000000000000000081565b60016020528060005260406000206000915090505481565b600360049054906101000a900463ffffffff1681565b60003414612255576040517f08c379a00000000000000000000000000000000000000000000000000000000081526004018080602001828103825260358152602001806128b86035913960400191505060405180910390fd5b600081146122ae576040517f08c379a00000000000000000000000000000000000000000000000000000000081526004018080602001828103825260348152602001806127eb6034913960400191505060405180910390fd5b60008473ffffffffffffffffffffffffffffffffffffffff16836005540360405180600001905060006040518083038185875af1925050503d8060008114612312576040519150601f19603f3d011682016040523d82523d6000602084013e612317565b606091505b5050905080612371576040517f08c379a00000000000000000000000000000000000000000000000000000000081526004018080602001828103825260258152602001806128406025913960400191505060405180910390fd5b600083111561243a578373ffffffffffffffffffffffffffffffffffffffff168360405180600001905060006040518083038185875af1925050503d80600081146123d8576040519150601f19603f3d011682016040523d82523d6000602084013e6123dd565b606091505b50508091505080612439576040517f08c379a00000000000000000000000000000000000000000000000000000000081526004018080602001828103825260238152602001806128656023913960400191505060405180910390fd5b5b5050505050565b600080600360049054906101000a900463ffffffff16905060008054906101000a900463ffffffff1663ffffffff16600263ffffffff160a63ffffffff168163ffffffff1614156124dd576040517f08c379a00000000000000000000000000000000000000000000000000000000081526004018080602001828103825260308152602001806128886030913960400191505060405180910390fd5b6000819050600084905060008060005b60008054906101000a900463ffffffff1663ffffffff168163ffffffff1610156125d457600060028663ffffffff168161252357fe5b0663ffffffff161415612567578392506125428163ffffffff16611a94565b915083600160008363ffffffff16815260200190815260200160002081905550612587565b600160008263ffffffff1681526020019081526020016000205492508391505b6125b27f000000000000000000000000000000000000000000000000000000000000000084846114a5565b935060028563ffffffff16816125c457fe5b04945080806001019150506124ed565b506000601e63ffffffff166001600360009054906101000a900463ffffffff160163ffffffff168161260257fe5b06905080600360006101000a81548163ffffffff021916908363ffffffff16021790555083600260008363ffffffff1681526020019081526020016000208190555060018601600360046101000a81548163ffffffff021916908363ffffffff160217905550859650505050505050919050565b600860003373ffffffffffffffffffffffffffffffffffffffff1673ffffffffffffffffffffffffffffffffffffffff16815260200190815260200160002060009054906101000a900460ff16612735576040517f08c379a000000000000000000000000000000000000000000000000000000000815260040180806020018281038252600c8152602001807f4e6f7420616e206f776e6572000000000000000000000000000000000000000081525060200191505060405180910390fd5b600554341461278f576040517f08c379a00000000000000000000000000000000000000000000000000000000081526004018080602001828103825260388152602001806127926038913960400191505060405180910390fd5b56fe506c656173652073656e6420606d697844656e6f6d696e6174696f6e602045544820616c6f6e672077697468207472616e73616374696f6e5f72696768742073686f756c6420626520696e7369646520746865206669656c64526566756e642076616c756520697320737570706f73656420746f206265207a65726f20666f722045544820696e7374616e636554686520636f6d6d69746d656e7420686173206265656e207375626d69747465647061796d656e7420746f205f726563697069656e7420646964206e6f7420676f20746872757061796d656e7420746f205f72656c6179657220646964206e6f7420676f20746872754d65726b6c6520747265652069732066756c6c2e204e6f206d6f7265206c65617665732063616e2062652061646465644d6573736167652076616c756520697320737570706f73656420746f206265207a65726f20666f722045544820696e7374616e6365a264697066735822122092bf71f739c3359af7452f396facbb48383fdbbb63b02876e10e27b85048ed8564736f6c6343000700003364656e6f6d696e6174696f6e2073686f756c642062652067726561746572207468616e20305f6c6576656c732073686f756c642062652067726561746572207468616e207a65726f",
          "opcodes": "PUSH1 0xC0 PUSH1 0x40 MSTORE PUSH1 0x0 PUSH1 0x3 PUSH1 0x0 PUSH2 0x100 EXP DUP2 SLOAD DUP2 PUSH4 0xFFFFFFFF MUL NOT AND SWAP1 DUP4 PUSH4 0xFFFFFFFF AND MUL OR SWAP1 SSTORE POP PUSH1 0x0 PUSH1 0x3 PUSH1 0x4 PUSH2 0x100 EXP DUP2 SLOAD DUP2 PUSH4 0xFFFFFFFF MUL NOT AND SWAP1 DUP4 PUSH4 0xFFFFFFFF AND MUL OR SWAP1 SSTORE POP CALLVALUE DUP1 ISZERO PUSH3 0x55 JUMPI PUSH1 0x0 DUP1 REVERT JUMPDEST POP PUSH1 0x40 MLOAD PUSH3 0x351A CODESIZE SUB DUP1 PUSH3 0x351A DUP4 CODECOPY DUP2 DUP2 ADD PUSH1 0x40 MSTORE PUSH1 0xA0 DUP2 LT ISZERO PUSH3 0x7B JUMPI PUSH1 0x0 DUP1 REVERT JUMPDEST DUP2 ADD SWAP1 DUP1 DUP1 MLOAD SWAP1 PUSH1 0x20 ADD SWAP1 SWAP3 SWAP2 SWAP1 DUP1 MLOAD SWAP1 PUSH1 0x20 ADD SWAP1 SWAP3 SWAP2 SWAP1 DUP1 MLOAD SWAP1 PUSH1 0x20 ADD SWAP1 SWAP3 SWAP2 SWAP1 DUP1 MLOAD SWAP1 PUSH1 0x20 ADD SWAP1 SWAP3 SWAP2 SWAP1 DUP1 MLOAD PUSH1 0x40 MLOAD SWAP4 SWAP3 SWAP2 SWAP1 DUP5 PUSH5 0x100000000 DUP3 GT ISZERO PUSH3 0xC4 JUMPI PUSH1 0x0 DUP1 REVERT JUMPDEST DUP4 DUP3 ADD SWAP2 POP PUSH1 0x20 DUP3 ADD DUP6 DUP2 GT ISZERO PUSH3 0xDB JUMPI PUSH1 0x0 DUP1 REVERT JUMPDEST DUP3 MLOAD DUP7 PUSH1 0x20 DUP3 MUL DUP4 ADD GT PUSH5 0x100000000 DUP3 GT OR ISZERO PUSH3 0xF9 JUMPI PUSH1 0x0 DUP1 REVERT JUMPDEST DUP1 DUP4 MSTORE PUSH1 0x20 DUP4 ADD SWAP3 POP POP POP SWAP1 DUP1 MLOAD SWAP1 PUSH1 0x20 ADD SWAP1 PUSH1 0x20 MUL DUP1 DUP4 DUP4 PUSH1 0x0 JUMPDEST DUP4 DUP2 LT ISZERO PUSH3 0x132 JUMPI DUP1 DUP3 ADD MLOAD DUP2 DUP5 ADD MSTORE PUSH1 0x20 DUP2 ADD SWAP1 POP PUSH3 0x115 JUMP JUMPDEST POP POP POP POP SWAP1 POP ADD PUSH1 0x40 MSTORE POP POP POP DUP1 DUP6 DUP6 DUP6 DUP6 DUP1 DUP4 PUSH1 0x0 DUP3 PUSH4 0xFFFFFFFF AND GT PUSH3 0x1A7 JUMPI PUSH1 0x40 MLOAD PUSH32 0x8C379A000000000000000000000000000000000000000000000000000000000 DUP2 MSTORE PUSH1 0x4 ADD DUP1 DUP1 PUSH1 0x20 ADD DUP3 DUP2 SUB DUP3 MSTORE PUSH1 0x23 DUP2 MSTORE PUSH1 0x20 ADD DUP1 PUSH3 0x34F7 PUSH1 0x23 SWAP2 CODECOPY PUSH1 0x40 ADD SWAP2 POP POP PUSH1 0x40 MLOAD DUP1 SWAP2 SUB SWAP1 REVERT JUMPDEST PUSH1 0x20 DUP3 PUSH4 0xFFFFFFFF AND LT PUSH3 0x224 JUMPI PUSH1 0x40 MLOAD PUSH32 0x8C379A000000000000000000000000000000000000000000000000000000000 DUP2 MSTORE PUSH1 0x4 ADD DUP1 DUP1 PUSH1 0x20 ADD DUP3 DUP2 SUB DUP3 MSTORE PUSH1 0x1E DUP2 MSTORE PUSH1 0x20 ADD DUP1 PUSH32 0x5F6C6576656C732073686F756C64206265206C657373207468616E2033320000 DUP2 MSTORE POP PUSH1 0x20 ADD SWAP2 POP POP PUSH1 0x40 MLOAD DUP1 SWAP2 SUB SWAP1 REVERT JUMPDEST DUP2 PUSH1 0x0 DUP1 PUSH2 0x100 EXP DUP2 SLOAD DUP2 PUSH4 0xFFFFFFFF MUL NOT AND SWAP1 DUP4 PUSH4 0xFFFFFFFF AND MUL OR SWAP1 SSTORE POP DUP1 PUSH20 0xFFFFFFFFFFFFFFFFFFFFFFFFFFFFFFFFFFFFFFFF AND PUSH1 0x80 DUP2 PUSH20 0xFFFFFFFFFFFFFFFFFFFFFFFFFFFFFFFFFFFFFFFF AND PUSH1 0x60 SHL DUP2 MSTORE POP POP PUSH1 0x0 JUMPDEST DUP3 PUSH4 0xFFFFFFFF AND DUP2 PUSH4 0xFFFFFFFF AND LT ISZERO PUSH3 0x2D5 JUMPI PUSH3 0x2AA DUP2 PUSH4 0xFFFFFFFF AND PUSH3 0x44A PUSH1 0x20 SHL PUSH1 0x20 SHR JUMP JUMPDEST PUSH1 0x1 PUSH1 0x0 DUP4 PUSH4 0xFFFFFFFF AND DUP2 MSTORE PUSH1 0x20 ADD SWAP1 DUP2 MSTORE PUSH1 0x20 ADD PUSH1 0x0 KECCAK256 DUP2 SWAP1 SSTORE POP DUP1 DUP1 PUSH1 0x1 ADD SWAP2 POP POP PUSH3 0x27E JUMP JUMPDEST POP PUSH3 0x2F0 PUSH1 0x1 DUP4 SUB PUSH4 0xFFFFFFFF AND PUSH3 0x44A PUSH1 0x20 SHL PUSH1 0x20 SHR JUMP JUMPDEST PUSH1 0x2 PUSH1 0x0 DUP1 DUP2 MSTORE PUSH1 0x20 ADD SWAP1 DUP2 MSTORE PUSH1 0x20 ADD PUSH1 0x0 KECCAK256 DUP2 SWAP1 SSTORE POP POP POP PUSH1 0x1 PUSH1 0x4 DUP2 SWAP1 SSTORE POP PUSH1 0x0 DUP3 GT PUSH3 0x36C JUMPI PUSH1 0x40 MLOAD PUSH32 0x8C379A000000000000000000000000000000000000000000000000000000000 DUP2 MSTORE PUSH1 0x4 ADD DUP1 DUP1 PUSH1 0x20 ADD DUP3 DUP2 SUB DUP3 MSTORE PUSH1 0x25 DUP2 MSTORE PUSH1 0x20 ADD DUP1 PUSH3 0x34D2 PUSH1 0x25 SWAP2 CODECOPY PUSH1 0x40 ADD SWAP2 POP POP PUSH1 0x40 MLOAD DUP1 SWAP2 SUB SWAP1 REVERT JUMPDEST DUP4 PUSH20 0xFFFFFFFFFFFFFFFFFFFFFFFFFFFFFFFFFFFFFFFF AND PUSH1 0xA0 DUP2 PUSH20 0xFFFFFFFFFFFFFFFFFFFFFFFFFFFFFFFFFFFFFFFF AND PUSH1 0x60 SHL DUP2 MSTORE POP POP DUP2 PUSH1 0x5 DUP2 SWAP1 SSTORE POP POP POP POP POP PUSH1 0x0 JUMPDEST DUP2 MLOAD DUP2 LT ISZERO PUSH3 0x435 JUMPI PUSH1 0x1 PUSH1 0x8 PUSH1 0x0 DUP5 DUP5 DUP2 MLOAD DUP2 LT PUSH3 0x3CE JUMPI INVALID JUMPDEST PUSH1 0x20 MUL PUSH1 0x20 ADD ADD MLOAD PUSH20 0xFFFFFFFFFFFFFFFFFFFFFFFFFFFFFFFFFFFFFFFF AND PUSH20 0xFFFFFFFFFFFFFFFFFFFFFFFFFFFFFFFFFFFFFFFF AND DUP2 MSTORE PUSH1 0x20 ADD SWAP1 DUP2 MSTORE PUSH1 0x20 ADD PUSH1 0x0 KECCAK256 PUSH1 0x0 PUSH2 0x100 EXP DUP2 SLOAD DUP2 PUSH1 0xFF MUL NOT AND SWAP1 DUP4 ISZERO ISZERO MUL OR SWAP1 SSTORE POP DUP1 DUP1 PUSH1 0x1 ADD SWAP2 POP POP PUSH3 0x3B1 JUMP JUMPDEST POP DUP1 MLOAD PUSH1 0x9 DUP2 SWAP1 SSTORE POP POP POP POP POP POP POP PUSH3 0xB7C JUMP JUMPDEST PUSH1 0x0 DUP1 DUP3 EQ ISZERO PUSH3 0x481 JUMPI PUSH32 0x2FE54C60D3ACABF3343A35B6EBA15DB4821B340F76E741E2249685ED4899AF6C PUSH1 0x0 SHL SWAP1 POP PUSH3 0xB77 JUMP JUMPDEST PUSH1 0x1 DUP3 EQ ISZERO PUSH3 0x4B7 JUMPI PUSH32 0x256A6135777EEE2FD26F54B8B7037A25439D5235CAEE224154186D2B8A52E31D PUSH1 0x0 SHL SWAP1 POP PUSH3 0xB77 JUMP JUMPDEST PUSH1 0x2 DUP3 EQ ISZERO PUSH3 0x4ED JUMPI PUSH32 0x1151949895E82AB19924DE92C40A3D6F7BCB60D92B00504B8199613683F0C200 PUSH1 0x0 SHL SWAP1 POP PUSH3 0xB77 JUMP JUMPDEST PUSH1 0x3 DUP3 EQ ISZERO PUSH3 0x523 JUMPI PUSH32 0x20121EE811489FF8D61F09FB89E313F14959A0F28BB428A20DBA6B0B068B3BDB PUSH1 0x0 SHL SWAP1 POP PUSH3 0xB77 JUMP JUMPDEST PUSH1 0x4 DUP3 EQ ISZERO PUSH3 0x559 JUMPI PUSH32 0xA89CA6FFA14CC462CFEDB842C30ED221A50A3D6BF022A6A57DC82AB24C157C9 PUSH1 0x0 SHL SWAP1 POP PUSH3 0xB77 JUMP JUMPDEST PUSH1 0x5 DUP3 EQ ISZERO PUSH3 0x58F JUMPI PUSH32 0x24CA05C2B5CD42E890D6BE94C68D0689F4F21C9CEC9C0F13FE41D566DFB54959 PUSH1 0x0 SHL SWAP1 POP PUSH3 0xB77 JUMP JUMPDEST PUSH1 0x6 DUP3 EQ ISZERO PUSH3 0x5C5 JUMPI PUSH32 0x1CCB97C932565A92C60156BDBA2D08F3BF1377464E025CEE765679E604A7315C PUSH1 0x0 SHL SWAP1 POP PUSH3 0xB77 JUMP JUMPDEST PUSH1 0x7 DUP3 EQ ISZERO PUSH3 0x5FB JUMPI PUSH32 0x19156FBD7D1A8BF5CBA8909367DE1B624534EBAB4F0F79E003BCCDD1B182BDB4 PUSH1 0x0 SHL SWAP1 POP PUSH3 0xB77 JUMP JUMPDEST PUSH1 0x8 DUP3 EQ ISZERO PUSH3 0x631 JUMPI PUSH32 0x261AF8C1F0912E465744641409F622D466C3920AC6E5FF37E36604CB11DFFF80 PUSH1 0x0 SHL SWAP1 POP PUSH3 0xB77 JUMP JUMPDEST PUSH1 0x9 DUP3 EQ ISZERO PUSH3 0x666 JUMPI PUSH31 0x58459724FF6CA5A1652FCBC3E82B93895CF08E975B19BEAB3F54C217D1C007 PUSH1 0x0 SHL SWAP1 POP PUSH3 0xB77 JUMP JUMPDEST PUSH1 0xA DUP3 EQ ISZERO PUSH3 0x69C JUMPI PUSH32 0x1F04EF20DEE48D39984D8EABE768A70EAFA6310AD20849D4573C3C40C2AD1E30 PUSH1 0x0 SHL SWAP1 POP PUSH3 0xB77 JUMP JUMPDEST PUSH1 0xB DUP3 EQ ISZERO PUSH3 0x6D2 JUMPI PUSH32 0x1BEA3DEC5DAB51567CE7E200A30F7BA6D4276AEAA53E2686F962A46C66D511E5 PUSH1 0x0 SHL SWAP1 POP PUSH3 0xB77 JUMP JUMPDEST PUSH1 0xC DUP3 EQ ISZERO PUSH3 0x708 JUMPI PUSH32 0xEE0F941E2DA4B9E31C3CA97A40D8FA9CE68D97C084177071B3CB46CD3372F0F PUSH1 0x0 SHL SWAP1 POP PUSH3 0xB77 JUMP JUMPDEST PUSH1 0xD DUP3 EQ ISZERO PUSH3 0x73E JUMPI PUSH32 0x1CA9503E8935884501BBAF20BE14EB4C46B89772C97B96E3B2EBF3A36A948BBD PUSH1 0x0 SHL SWAP1 POP PUSH3 0xB77 JUMP JUMPDEST PUSH1 0xE DUP3 EQ ISZERO PUSH3 0x774 JUMPI PUSH32 0x133A80E30697CD55D8F7D4B0965B7BE24057BA5DC3DA898EE2187232446CB108 PUSH1 0x0 SHL SWAP1 POP PUSH3 0xB77 JUMP JUMPDEST PUSH1 0xF DUP3 EQ ISZERO PUSH3 0x7AA JUMPI PUSH32 0x13E6D8FC88839ED76E182C2A779AF5B2C0DA9DD18C90427A644F7E148A6253B6 PUSH1 0x0 SHL SWAP1 POP PUSH3 0xB77 JUMP JUMPDEST PUSH1 0x10 DUP3 EQ ISZERO PUSH3 0x7E0 JUMPI PUSH32 0x1EB16B057A477F4BC8F572EA6BEE39561098F78F15BFB3699DCBB7BD8DB61854 PUSH1 0x0 SHL SWAP1 POP PUSH3 0xB77 JUMP JUMPDEST PUSH1 0x11 DUP3 EQ ISZERO PUSH3 0x816 JUMPI PUSH32 0xDA2CB16A1CEAABF1C16B838F7A9E3F2A3A3088D9E0A6DEBAA748114620696EA PUSH1 0x0 SHL SWAP1 POP PUSH3 0xB77 JUMP JUMPDEST PUSH1 0x12 DUP3 EQ ISZERO PUSH3 0x84C JUMPI PUSH32 0x24A3B3D822420B14B5D8CB6C28A574F01E98EA9E940551D2EBD75CEE12649F9D PUSH1 0x0 SHL SWAP1 POP PUSH3 0xB77 JUMP JUMPDEST PUSH1 0x13 DUP3 EQ ISZERO PUSH3 0x882 JUMPI PUSH32 0x198622ACBD783D1B0D9064105B1FC8E4D8889DE95C4C519B3F635809FE6AFC05 PUSH1 0x0 SHL SWAP1 POP PUSH3 0xB77 JUMP JUMPDEST PUSH1 0x14 DUP3 EQ ISZERO PUSH3 0x8B8 JUMPI PUSH32 0x29D7ED391256CCC3EA596C86E933B89FF339D25EA8DDCED975AE2FE30B5296D4 PUSH1 0x0 SHL SWAP1 POP PUSH3 0xB77 JUMP JUMPDEST PUSH1 0x15 DUP3 EQ ISZERO PUSH3 0x8EE JUMPI PUSH32 0x19BE59F2F0413CE78C0C3703A3A5451B1D7F39629FA33ABD11548A76065B2967 PUSH1 0x0 SHL SWAP1 POP PUSH3 0xB77 JUMP JUMPDEST PUSH1 0x16 DUP3 EQ ISZERO PUSH3 0x924 JUMPI PUSH32 0x1FF3F61797E538B70E619310D33F2A063E7EB59104E112E95738DA1254DC3453 PUSH1 0x0 SHL SWAP1 POP PUSH3 0xB77 JUMP JUMPDEST PUSH1 0x17 DUP3 EQ ISZERO PUSH3 0x95A JUMPI PUSH32 0x10C16AE9959CF8358980D9DD9616E48228737310A10E2B6B731C1A548F036C48 PUSH1 0x0 SHL SWAP1 POP PUSH3 0xB77 JUMP JUMPDEST PUSH1 0x18 DUP3 EQ ISZERO PUSH3 0x990 JUMPI PUSH32 0xBA433A63174A90AC20992E75E3095496812B652685B5E1A2EAE0B1BF4E8FCD1 PUSH1 0x0 SHL SWAP1 POP PUSH3 0xB77 JUMP JUMPDEST PUSH1 0x19 DUP3 EQ ISZERO PUSH3 0x9C6 JUMPI PUSH32 0x19DDB9DF2BC98D987D0DFECA9D2B643DEAFAB8F7036562E627C3667266A044C PUSH1 0x0 SHL SWAP1 POP PUSH3 0xB77 JUMP JUMPDEST PUSH1 0x1A DUP3 EQ ISZERO PUSH3 0x9FC JUMPI PUSH32 0x2D3C88B23175C5A5565DB928414C66D1912B11ACF974B2E644CAAAC04739CE99 PUSH1 0x0 SHL SWAP1 POP PUSH3 0xB77 JUMP JUMPDEST PUSH1 0x1B DUP3 EQ ISZERO PUSH3 0xA32 JUMPI PUSH32 0x2EAB55F6AE4E66E32C5189EED5C470840863445760F5ED7E7B69B2A62600F354 PUSH1 0x0 SHL SWAP1 POP PUSH3 0xB77 JUMP JUMPDEST PUSH1 0x1C DUP3 EQ ISZERO PUSH3 0xA67 JUMPI PUSH31 0x2DF37A2642621802383CF952BF4DD1F32E05433BEEB1FD41031FB7EACE979D PUSH1 0x0 SHL SWAP1 POP PUSH3 0xB77 JUMP JUMPDEST PUSH1 0x1D DUP3 EQ ISZERO PUSH3 0xA9D JUMPI PUSH32 0x104AEB41435DB66C3E62FECCC1D6F5D98D0A0ED75D1374DB457CF462E3A1F427 PUSH1 0x0 SHL SWAP1 POP PUSH3 0xB77 JUMP JUMPDEST PUSH1 0x1E DUP3 EQ ISZERO PUSH3 0xAD3 JUMPI PUSH32 0x1F3C6FD858E9A7D4B0D1F38E256A09D81D5A5E3C963987E2D4B814CFAB7C6EBB PUSH1 0x0 SHL SWAP1 POP PUSH3 0xB77 JUMP JUMPDEST PUSH1 0x1F DUP3 EQ ISZERO PUSH3 0xB09 JUMPI PUSH32 0x2C7A07D20DFF79D01FECEDC1134284A8D08436606C93693B67E333F671BF69CC PUSH1 0x0 SHL SWAP1 POP PUSH3 0xB77 JUMP JUMPDEST PUSH1 0x40 MLOAD PUSH32 0x8C379A000000000000000000000000000000000000000000000000000000000 DUP2 MSTORE PUSH1 0x4 ADD DUP1 DUP1 PUSH1 0x20 ADD DUP3 DUP2 SUB DUP3 MSTORE PUSH1 0x13 DUP2 MSTORE PUSH1 0x20 ADD DUP1 PUSH32 0x496E646578206F7574206F6620626F756E647300000000000000000000000000 DUP2 MSTORE POP PUSH1 0x20 ADD SWAP2 POP POP PUSH1 0x40 MLOAD DUP1 SWAP2 SUB SWAP1 REVERT JUMPDEST SWAP2 SWAP1 POP JUMP JUMPDEST PUSH1 0x80 MLOAD PUSH1 0x60 SHR PUSH1 0xA0 MLOAD PUSH1 0x60 SHR PUSH2 0x2922 PUSH3 0xBB0 PUSH1 0x0 CODECOPY DUP1 PUSH2 0xE54 MSTORE DUP1 PUSH2 0x10EC MSTORE POP DUP1 PUSH2 0x21AC MSTORE DUP1 PUSH2 0x258C MSTORE POP PUSH2 0x2922 PUSH1 0x0 RETURN INVALID PUSH1 0x80 PUSH1 0x40 MSTORE PUSH1 0x4 CALLDATASIZE LT PUSH2 0x1B7 JUMPI PUSH1 0x0 CALLDATALOAD PUSH1 0xE0 SHR DUP1 PUSH4 0x90EEB02B GT PUSH2 0xEC JUMPI DUP1 PUSH4 0xE43252D7 GT PUSH2 0x8A JUMPI DUP1 PUSH4 0xEC732959 GT PUSH2 0x64 JUMPI DUP1 PUSH4 0xEC732959 EQ PUSH2 0x993 JUMPI DUP1 PUSH4 0xED33639F EQ PUSH2 0x9BE JUMPI DUP1 PUSH4 0xF178E47C EQ PUSH2 0x9FF JUMPI DUP1 PUSH4 0xFC7E9C6F EQ PUSH2 0xA4E JUMPI PUSH2 0x1B7 JUMP JUMPDEST DUP1 PUSH4 0xE43252D7 EQ PUSH2 0x8A2 JUMPI DUP1 PUSH4 0xE5285DCC EQ PUSH2 0x8F3 JUMPI DUP1 PUSH4 0xE8295588 EQ PUSH2 0x944 JUMPI PUSH2 0x1B7 JUMP JUMPDEST DUP1 PUSH4 0xBA70F757 GT PUSH2 0xC6 JUMPI DUP1 PUSH4 0xBA70F757 EQ PUSH2 0x790 JUMPI DUP1 PUSH4 0xC2B40AE4 EQ PUSH2 0x7BB JUMPI DUP1 PUSH4 0xCD87A3B4 EQ PUSH2 0x80A JUMPI DUP1 PUSH4 0xCF52A7B2 EQ PUSH2 0x83B JUMPI PUSH2 0x1B7 JUMP JUMPDEST DUP1 PUSH4 0x90EEB02B EQ PUSH2 0x656 JUMPI DUP1 PUSH4 0x9FA12D0B EQ PUSH2 0x687 JUMPI DUP1 PUSH4 0xB214FAA5 EQ PUSH2 0x762 JUMPI PUSH2 0x1B7 JUMP JUMPDEST DUP1 PUSH4 0x6D9833E3 GT PUSH2 0x159 JUMPI DUP1 PUSH4 0x839DF945 GT PUSH2 0x133 JUMPI DUP1 PUSH4 0x839DF945 EQ PUSH2 0x510 JUMPI DUP1 PUSH4 0x8AB1D681 EQ PUSH2 0x561 JUMPI DUP1 PUSH4 0x8BCA6D16 EQ PUSH2 0x5B2 JUMPI DUP1 PUSH4 0x8EA3099E EQ PUSH2 0x5DD JUMPI PUSH2 0x1B7 JUMP JUMPDEST DUP1 PUSH4 0x6D9833E3 EQ PUSH2 0x407 JUMPI DUP1 PUSH4 0x6F9170F6 EQ PUSH2 0x458 JUMPI DUP1 PUSH4 0x7065CB48 EQ PUSH2 0x4BF JUMPI PUSH2 0x1B7 JUMP JUMPDEST DUP1 PUSH4 0x21A0ADB6 GT PUSH2 0x195 JUMPI DUP1 PUSH4 0x21A0ADB6 EQ PUSH2 0x289 JUMPI DUP1 PUSH4 0x2B7AC3F3 EQ PUSH2 0x36A JUMPI DUP1 PUSH4 0x414A37BA EQ PUSH2 0x3AB JUMPI DUP1 PUSH4 0x4ECF518B EQ PUSH2 0x3D6 JUMPI PUSH2 0x1B7 JUMP JUMPDEST DUP1 PUSH4 0xDB02622 EQ PUSH2 0x1BC JUMPI DUP1 PUSH4 0x173825D9 EQ PUSH2 0x1E7 JUMPI DUP1 PUSH4 0x17CC915C EQ PUSH2 0x238 JUMPI JUMPDEST PUSH1 0x0 DUP1 REVERT JUMPDEST CALLVALUE DUP1 ISZERO PUSH2 0x1C8 JUMPI PUSH1 0x0 DUP1 REVERT JUMPDEST POP PUSH2 0x1D1 PUSH2 0xA7F JUMP JUMPDEST PUSH1 0x40 MLOAD DUP1 DUP3 DUP2 MSTORE PUSH1 0x20 ADD SWAP2 POP POP PUSH1 0x40 MLOAD DUP1 SWAP2 SUB SWAP1 RETURN JUMPDEST CALLVALUE DUP1 ISZERO PUSH2 0x1F3 JUMPI PUSH1 0x0 DUP1 REVERT JUMPDEST POP PUSH2 0x236 PUSH1 0x4 DUP1 CALLDATASIZE SUB PUSH1 0x20 DUP2 LT ISZERO PUSH2 0x20A JUMPI PUSH1 0x0 DUP1 REVERT JUMPDEST DUP2 ADD SWAP1 DUP1 DUP1 CALLDATALOAD PUSH20 0xFFFFFFFFFFFFFFFFFFFFFFFFFFFFFFFFFFFFFFFF AND SWAP1 PUSH1 0x20 ADD SWAP1 SWAP3 SWAP2 SWAP1 POP POP POP PUSH2 0xA85 JUMP JUMPDEST STOP JUMPDEST CALLVALUE DUP1 ISZERO PUSH2 0x244 JUMPI PUSH1 0x0 DUP1 REVERT JUMPDEST POP PUSH2 0x271 PUSH1 0x4 DUP1 CALLDATASIZE SUB PUSH1 0x20 DUP2 LT ISZERO PUSH2 0x25B JUMPI PUSH1 0x0 DUP1 REVERT JUMPDEST DUP2 ADD SWAP1 DUP1 DUP1 CALLDATALOAD SWAP1 PUSH1 0x20 ADD SWAP1 SWAP3 SWAP2 SWAP1 POP POP POP PUSH2 0xC2A JUMP JUMPDEST PUSH1 0x40 MLOAD DUP1 DUP3 ISZERO ISZERO DUP2 MSTORE PUSH1 0x20 ADD SWAP2 POP POP PUSH1 0x40 MLOAD DUP1 SWAP2 SUB SWAP1 RETURN JUMPDEST PUSH2 0x368 PUSH1 0x4 DUP1 CALLDATASIZE SUB PUSH1 0xE0 DUP2 LT ISZERO PUSH2 0x29F JUMPI PUSH1 0x0 DUP1 REVERT JUMPDEST DUP2 ADD SWAP1 DUP1 DUP1 CALLDATALOAD SWAP1 PUSH1 0x20 ADD SWAP1 PUSH5 0x100000000 DUP2 GT ISZERO PUSH2 0x2BC JUMPI PUSH1 0x0 DUP1 REVERT JUMPDEST DUP3 ADD DUP4 PUSH1 0x20 DUP3 ADD GT ISZERO PUSH2 0x2CE JUMPI PUSH1 0x0 DUP1 REVERT JUMPDEST DUP1 CALLDATALOAD SWAP1 PUSH1 0x20 ADD SWAP2 DUP5 PUSH1 0x1 DUP4 MUL DUP5 ADD GT PUSH5 0x100000000 DUP4 GT OR ISZERO PUSH2 0x2F0 JUMPI PUSH1 0x0 DUP1 REVERT JUMPDEST SWAP1 SWAP2 SWAP3 SWAP4 SWAP2 SWAP3 SWAP4 SWAP1 DUP1 CALLDATALOAD SWAP1 PUSH1 0x20 ADD SWAP1 SWAP3 SWAP2 SWAP1 DUP1 CALLDATALOAD SWAP1 PUSH1 0x20 ADD SWAP1 SWAP3 SWAP2 SWAP1 DUP1 CALLDATALOAD PUSH20 0xFFFFFFFFFFFFFFFFFFFFFFFFFFFFFFFFFFFFFFFF AND SWAP1 PUSH1 0x20 ADD SWAP1 SWAP3 SWAP2 SWAP1 DUP1 CALLDATALOAD PUSH20 0xFFFFFFFFFFFFFFFFFFFFFFFFFFFFFFFFFFFFFFFF AND SWAP1 PUSH1 0x20 ADD SWAP1 SWAP3 SWAP2 SWAP1 DUP1 CALLDATALOAD SWAP1 PUSH1 0x20 ADD SWAP1 SWAP3 SWAP2 SWAP1 DUP1 CALLDATALOAD SWAP1 PUSH1 0x20 ADD SWAP1 SWAP3 SWAP2 SWAP1 POP POP POP PUSH2 0xC4A JUMP JUMPDEST STOP JUMPDEST CALLVALUE DUP1 ISZERO PUSH2 0x376 JUMPI PUSH1 0x0 DUP1 REVERT JUMPDEST POP PUSH2 0x37F PUSH2 0x10EA JUMP JUMPDEST PUSH1 0x40 MLOAD DUP1 DUP3 PUSH20 0xFFFFFFFFFFFFFFFFFFFFFFFFFFFFFFFFFFFFFFFF AND DUP2 MSTORE PUSH1 0x20 ADD SWAP2 POP POP PUSH1 0x40 MLOAD DUP1 SWAP2 SUB SWAP1 RETURN JUMPDEST CALLVALUE DUP1 ISZERO PUSH2 0x3B7 JUMPI PUSH1 0x0 DUP1 REVERT JUMPDEST POP PUSH2 0x3C0 PUSH2 0x110E JUMP JUMPDEST PUSH1 0x40 MLOAD DUP1 DUP3 DUP2 MSTORE PUSH1 0x20 ADD SWAP2 POP POP PUSH1 0x40 MLOAD DUP1 SWAP2 SUB SWAP1 RETURN JUMPDEST CALLVALUE DUP1 ISZERO PUSH2 0x3E2 JUMPI PUSH1 0x0 DUP1 REVERT JUMPDEST POP PUSH2 0x3EB PUSH2 0x1132 JUMP JUMPDEST PUSH1 0x40 MLOAD DUP1 DUP3 PUSH4 0xFFFFFFFF AND DUP2 MSTORE PUSH1 0x20 ADD SWAP2 POP POP PUSH1 0x40 MLOAD DUP1 SWAP2 SUB SWAP1 RETURN JUMPDEST CALLVALUE DUP1 ISZERO PUSH2 0x413 JUMPI PUSH1 0x0 DUP1 REVERT JUMPDEST POP PUSH2 0x440 PUSH1 0x4 DUP1 CALLDATASIZE SUB PUSH1 0x20 DUP2 LT ISZERO PUSH2 0x42A JUMPI PUSH1 0x0 DUP1 REVERT JUMPDEST DUP2 ADD SWAP1 DUP1 DUP1 CALLDATALOAD SWAP1 PUSH1 0x20 ADD SWAP1 SWAP3 SWAP2 SWAP1 POP POP POP PUSH2 0x1146 JUMP JUMPDEST PUSH1 0x40 MLOAD DUP1 DUP3 ISZERO ISZERO DUP2 MSTORE PUSH1 0x20 ADD SWAP2 POP POP PUSH1 0x40 MLOAD DUP1 SWAP2 SUB SWAP1 RETURN JUMPDEST CALLVALUE DUP1 ISZERO PUSH2 0x464 JUMPI PUSH1 0x0 DUP1 REVERT JUMPDEST POP PUSH2 0x4A7 PUSH1 0x4 DUP1 CALLDATASIZE SUB PUSH1 0x20 DUP2 LT ISZERO PUSH2 0x47B JUMPI PUSH1 0x0 DUP1 REVERT JUMPDEST DUP2 ADD SWAP1 DUP1 DUP1 CALLDATALOAD PUSH20 0xFFFFFFFFFFFFFFFFFFFFFFFFFFFFFFFFFFFFFFFF AND SWAP1 PUSH1 0x20 ADD SWAP1 SWAP3 SWAP2 SWAP1 POP POP POP PUSH2 0x11E2 JUMP JUMPDEST PUSH1 0x40 MLOAD DUP1 DUP3 ISZERO ISZERO DUP2 MSTORE PUSH1 0x20 ADD SWAP2 POP POP PUSH1 0x40 MLOAD DUP1 SWAP2 SUB SWAP1 RETURN JUMPDEST CALLVALUE DUP1 ISZERO PUSH2 0x4CB JUMPI PUSH1 0x0 DUP1 REVERT JUMPDEST POP PUSH2 0x50E PUSH1 0x4 DUP1 CALLDATASIZE SUB PUSH1 0x20 DUP2 LT ISZERO PUSH2 0x4E2 JUMPI PUSH1 0x0 DUP1 REVERT JUMPDEST DUP2 ADD SWAP1 DUP1 DUP1 CALLDATALOAD PUSH20 0xFFFFFFFFFFFFFFFFFFFFFFFFFFFFFFFFFFFFFFFF AND SWAP1 PUSH1 0x20 ADD SWAP1 SWAP3 SWAP2 SWAP1 POP POP POP PUSH2 0x1238 JUMP JUMPDEST STOP JUMPDEST CALLVALUE DUP1 ISZERO PUSH2 0x51C JUMPI PUSH1 0x0 DUP1 REVERT JUMPDEST POP PUSH2 0x549 PUSH1 0x4 DUP1 CALLDATASIZE SUB PUSH1 0x20 DUP2 LT ISZERO PUSH2 0x533 JUMPI PUSH1 0x0 DUP1 REVERT JUMPDEST DUP2 ADD SWAP1 DUP1 DUP1 CALLDATALOAD SWAP1 PUSH1 0x20 ADD SWAP1 SWAP3 SWAP2 SWAP1 POP POP POP PUSH2 0x1424 JUMP JUMPDEST PUSH1 0x40 MLOAD DUP1 DUP3 ISZERO ISZERO DUP2 MSTORE PUSH1 0x20 ADD SWAP2 POP POP PUSH1 0x40 MLOAD DUP1 SWAP2 SUB SWAP1 RETURN JUMPDEST CALLVALUE DUP1 ISZERO PUSH2 0x56D JUMPI PUSH1 0x0 DUP1 REVERT JUMPDEST POP PUSH2 0x5B0 PUSH1 0x4 DUP1 CALLDATASIZE SUB PUSH1 0x20 DUP2 LT ISZERO PUSH2 0x584 JUMPI PUSH1 0x0 DUP1 REVERT JUMPDEST DUP2 ADD SWAP1 DUP1 DUP1 CALLDATALOAD PUSH20 0xFFFFFFFFFFFFFFFFFFFFFFFFFFFFFFFFFFFFFFFF AND SWAP1 PUSH1 0x20 ADD SWAP1 SWAP3 SWAP2 SWAP1 POP POP POP PUSH2 0x1444 JUMP JUMPDEST STOP JUMPDEST CALLVALUE DUP1 ISZERO PUSH2 0x5BE JUMPI PUSH1 0x0 DUP1 REVERT JUMPDEST POP PUSH2 0x5C7 PUSH2 0x149F JUMP JUMPDEST PUSH1 0x40 MLOAD DUP1 DUP3 DUP2 MSTORE PUSH1 0x20 ADD SWAP2 POP POP PUSH1 0x40 MLOAD DUP1 SWAP2 SUB SWAP1 RETURN JUMPDEST CALLVALUE DUP1 ISZERO PUSH2 0x5E9 JUMPI PUSH1 0x0 DUP1 REVERT JUMPDEST POP PUSH2 0x640 PUSH1 0x4 DUP1 CALLDATASIZE SUB PUSH1 0x60 DUP2 LT ISZERO PUSH2 0x600 JUMPI PUSH1 0x0 DUP1 REVERT JUMPDEST DUP2 ADD SWAP1 DUP1 DUP1 CALLDATALOAD PUSH20 0xFFFFFFFFFFFFFFFFFFFFFFFFFFFFFFFFFFFFFFFF AND SWAP1 PUSH1 0x20 ADD SWAP1 SWAP3 SWAP2 SWAP1 DUP1 CALLDATALOAD SWAP1 PUSH1 0x20 ADD SWAP1 SWAP3 SWAP2 SWAP1 DUP1 CALLDATALOAD SWAP1 PUSH1 0x20 ADD SWAP1 SWAP3 SWAP2 SWAP1 POP POP POP PUSH2 0x14A5 JUMP JUMPDEST PUSH1 0x40 MLOAD DUP1 DUP3 DUP2 MSTORE PUSH1 0x20 ADD SWAP2 POP POP PUSH1 0x40 MLOAD DUP1 SWAP2 SUB SWAP1 RETURN JUMPDEST CALLVALUE DUP1 ISZERO PUSH2 0x662 JUMPI PUSH1 0x0 DUP1 REVERT JUMPDEST POP PUSH2 0x66B PUSH2 0x174D JUMP JUMPDEST PUSH1 0x40 MLOAD DUP1 DUP3 PUSH4 0xFFFFFFFF AND DUP2 MSTORE PUSH1 0x20 ADD SWAP2 POP POP PUSH1 0x40 MLOAD DUP1 SWAP2 SUB SWAP1 RETURN JUMPDEST CALLVALUE DUP1 ISZERO PUSH2 0x693 JUMPI PUSH1 0x0 DUP1 REVERT JUMPDEST POP PUSH2 0x70B PUSH1 0x4 DUP1 CALLDATASIZE SUB PUSH1 0x20 DUP2 LT ISZERO PUSH2 0x6AA JUMPI PUSH1 0x0 DUP1 REVERT JUMPDEST DUP2 ADD SWAP1 DUP1 DUP1 CALLDATALOAD SWAP1 PUSH1 0x20 ADD SWAP1 PUSH5 0x100000000 DUP2 GT ISZERO PUSH2 0x6C7 JUMPI PUSH1 0x0 DUP1 REVERT JUMPDEST DUP3 ADD DUP4 PUSH1 0x20 DUP3 ADD GT ISZERO PUSH2 0x6D9 JUMPI PUSH1 0x0 DUP1 REVERT JUMPDEST DUP1 CALLDATALOAD SWAP1 PUSH1 0x20 ADD SWAP2 DUP5 PUSH1 0x20 DUP4 MUL DUP5 ADD GT PUSH5 0x100000000 DUP4 GT OR ISZERO PUSH2 0x6FB JUMPI PUSH1 0x0 DUP1 REVERT JUMPDEST SWAP1 SWAP2 SWAP3 SWAP4 SWAP2 SWAP3 SWAP4 SWAP1 POP POP POP PUSH2 0x1763 JUMP JUMPDEST PUSH1 0x40 MLOAD DUP1 DUP1 PUSH1 0x20 ADD DUP3 DUP2 SUB DUP3 MSTORE DUP4 DUP2 DUP2 MLOAD DUP2 MSTORE PUSH1 0x20 ADD SWAP2 POP DUP1 MLOAD SWAP1 PUSH1 0x20 ADD SWAP1 PUSH1 0x20 MUL DUP1 DUP4 DUP4 PUSH1 0x0 JUMPDEST DUP4 DUP2 LT ISZERO PUSH2 0x74E JUMPI DUP1 DUP3 ADD MLOAD DUP2 DUP5 ADD MSTORE PUSH1 0x20 DUP2 ADD SWAP1 POP PUSH2 0x733 JUMP JUMPDEST POP POP POP POP SWAP1 POP ADD SWAP3 POP POP POP PUSH1 0x40 MLOAD DUP1 SWAP2 SUB SWAP1 RETURN JUMPDEST PUSH2 0x78E PUSH1 0x4 DUP1 CALLDATASIZE SUB PUSH1 0x20 DUP2 LT ISZERO PUSH2 0x778 JUMPI PUSH1 0x0 DUP1 REVERT JUMPDEST DUP2 ADD SWAP1 DUP1 DUP1 CALLDATALOAD SWAP1 PUSH1 0x20 ADD SWAP1 SWAP3 SWAP2 SWAP1 POP POP POP PUSH2 0x1814 JUMP JUMPDEST STOP JUMPDEST CALLVALUE DUP1 ISZERO PUSH2 0x79C JUMPI PUSH1 0x0 DUP1 REVERT JUMPDEST POP PUSH2 0x7A5 PUSH2 0x199F JUMP JUMPDEST PUSH1 0x40 MLOAD DUP1 DUP3 DUP2 MSTORE PUSH1 0x20 ADD SWAP2 POP POP PUSH1 0x40 MLOAD DUP1 SWAP2 SUB SWAP1 RETURN JUMPDEST CALLVALUE DUP1 ISZERO PUSH2 0x7C7 JUMPI PUSH1 0x0 DUP1 REVERT JUMPDEST POP PUSH2 0x7F4 PUSH1 0x4 DUP1 CALLDATASIZE SUB PUSH1 0x20 DUP2 LT ISZERO PUSH2 0x7DE JUMPI PUSH1 0x0 DUP1 REVERT JUMPDEST DUP2 ADD SWAP1 DUP1 DUP1 CALLDATALOAD SWAP1 PUSH1 0x20 ADD SWAP1 SWAP3 SWAP2 SWAP1 POP POP POP PUSH2 0x19D2 JUMP JUMPDEST PUSH1 0x40 MLOAD DUP1 DUP3 DUP2 MSTORE PUSH1 0x20 ADD SWAP2 POP POP PUSH1 0x40 MLOAD DUP1 SWAP2 SUB SWAP1 RETURN JUMPDEST CALLVALUE DUP1 ISZERO PUSH2 0x816 JUMPI PUSH1 0x0 DUP1 REVERT JUMPDEST POP PUSH2 0x81F PUSH2 0x19EA JUMP JUMPDEST PUSH1 0x40 MLOAD DUP1 DUP3 PUSH4 0xFFFFFFFF AND DUP2 MSTORE PUSH1 0x20 ADD SWAP2 POP POP PUSH1 0x40 MLOAD DUP1 SWAP2 SUB SWAP1 RETURN JUMPDEST CALLVALUE DUP1 ISZERO PUSH2 0x847 JUMPI PUSH1 0x0 DUP1 REVERT JUMPDEST POP PUSH2 0x88A PUSH1 0x4 DUP1 CALLDATASIZE SUB PUSH1 0x20 DUP2 LT ISZERO PUSH2 0x85E JUMPI PUSH1 0x0 DUP1 REVERT JUMPDEST DUP2 ADD SWAP1 DUP1 DUP1 CALLDATALOAD PUSH20 0xFFFFFFFFFFFFFFFFFFFFFFFFFFFFFFFFFFFFFFFF AND SWAP1 PUSH1 0x20 ADD SWAP1 SWAP3 SWAP2 SWAP1 POP POP POP PUSH2 0x19EF JUMP JUMPDEST PUSH1 0x40 MLOAD DUP1 DUP3 ISZERO ISZERO DUP2 MSTORE PUSH1 0x20 ADD SWAP2 POP POP PUSH1 0x40 MLOAD DUP1 SWAP2 SUB SWAP1 RETURN JUMPDEST CALLVALUE DUP1 ISZERO PUSH2 0x8AE JUMPI PUSH1 0x0 DUP1 REVERT JUMPDEST POP PUSH2 0x8F1 PUSH1 0x4 DUP1 CALLDATASIZE SUB PUSH1 0x20 DUP2 LT ISZERO PUSH2 0x8C5 JUMPI PUSH1 0x0 DUP1 REVERT JUMPDEST DUP2 ADD SWAP1 DUP1 DUP1 CALLDATALOAD PUSH20 0xFFFFFFFFFFFFFFFFFFFFFFFFFFFFFFFFFFFFFFFF AND SWAP1 PUSH1 0x20 ADD SWAP1 SWAP3 SWAP2 SWAP1 POP POP POP PUSH2 0x1A0F JUMP JUMPDEST STOP JUMPDEST CALLVALUE DUP1 ISZERO PUSH2 0x8FF JUMPI PUSH1 0x0 DUP1 REVERT JUMPDEST POP PUSH2 0x92C PUSH1 0x4 DUP1 CALLDATASIZE SUB PUSH1 0x20 DUP2 LT ISZERO PUSH2 0x916 JUMPI PUSH1 0x0 DUP1 REVERT JUMPDEST DUP2 ADD SWAP1 DUP1 DUP1 CALLDATALOAD SWAP1 PUSH1 0x20 ADD SWAP1 SWAP3 SWAP2 SWAP1 POP POP POP PUSH2 0x1A6A JUMP JUMPDEST PUSH1 0x40 MLOAD DUP1 DUP3 ISZERO ISZERO DUP2 MSTORE PUSH1 0x20 ADD SWAP2 POP POP PUSH1 0x40 MLOAD DUP1 SWAP2 SUB SWAP1 RETURN JUMPDEST CALLVALUE DUP1 ISZERO PUSH2 0x950 JUMPI PUSH1 0x0 DUP1 REVERT JUMPDEST POP PUSH2 0x97D PUSH1 0x4 DUP1 CALLDATASIZE SUB PUSH1 0x20 DUP2 LT ISZERO PUSH2 0x967 JUMPI PUSH1 0x0 DUP1 REVERT JUMPDEST DUP2 ADD SWAP1 DUP1 DUP1 CALLDATALOAD SWAP1 PUSH1 0x20 ADD SWAP1 SWAP3 SWAP2 SWAP1 POP POP POP PUSH2 0x1A94 JUMP JUMPDEST PUSH1 0x40 MLOAD DUP1 DUP3 DUP2 MSTORE PUSH1 0x20 ADD SWAP2 POP POP PUSH1 0x40 MLOAD DUP1 SWAP2 SUB SWAP1 RETURN JUMPDEST CALLVALUE DUP1 ISZERO PUSH2 0x99F JUMPI PUSH1 0x0 DUP1 REVERT JUMPDEST POP PUSH2 0x9A8 PUSH2 0x2186 JUMP JUMPDEST PUSH1 0x40 MLOAD DUP1 DUP3 DUP2 MSTORE PUSH1 0x20 ADD SWAP2 POP POP PUSH1 0x40 MLOAD DUP1 SWAP2 SUB SWAP1 RETURN JUMPDEST CALLVALUE DUP1 ISZERO PUSH2 0x9CA JUMPI PUSH1 0x0 DUP1 REVERT JUMPDEST POP PUSH2 0x9D3 PUSH2 0x21AA JUMP JUMPDEST PUSH1 0x40 MLOAD DUP1 DUP3 PUSH20 0xFFFFFFFFFFFFFFFFFFFFFFFFFFFFFFFFFFFFFFFF AND DUP2 MSTORE PUSH1 0x20 ADD SWAP2 POP POP PUSH1 0x40 MLOAD DUP1 SWAP2 SUB SWAP1 RETURN JUMPDEST CALLVALUE DUP1 ISZERO PUSH2 0xA0B JUMPI PUSH1 0x0 DUP1 REVERT JUMPDEST POP PUSH2 0xA38 PUSH1 0x4 DUP1 CALLDATASIZE SUB PUSH1 0x20 DUP2 LT ISZERO PUSH2 0xA22 JUMPI PUSH1 0x0 DUP1 REVERT JUMPDEST DUP2 ADD SWAP1 DUP1 DUP1 CALLDATALOAD SWAP1 PUSH1 0x20 ADD SWAP1 SWAP3 SWAP2 SWAP1 POP POP POP PUSH2 0x21CE JUMP JUMPDEST PUSH1 0x40 MLOAD DUP1 DUP3 DUP2 MSTORE PUSH1 0x20 ADD SWAP2 POP POP PUSH1 0x40 MLOAD DUP1 SWAP2 SUB SWAP1 RETURN JUMPDEST CALLVALUE DUP1 ISZERO PUSH2 0xA5A JUMPI PUSH1 0x0 DUP1 REVERT JUMPDEST POP PUSH2 0xA63 PUSH2 0x21E6 JUMP JUMPDEST PUSH1 0x40 MLOAD DUP1 DUP3 PUSH4 0xFFFFFFFF AND DUP2 MSTORE PUSH1 0x20 ADD SWAP2 POP POP PUSH1 0x40 MLOAD DUP1 SWAP2 SUB SWAP1 RETURN JUMPDEST PUSH1 0x9 SLOAD DUP2 JUMP JUMPDEST PUSH1 0x8 PUSH1 0x0 CALLER PUSH20 0xFFFFFFFFFFFFFFFFFFFFFFFFFFFFFFFFFFFFFFFF AND PUSH20 0xFFFFFFFFFFFFFFFFFFFFFFFFFFFFFFFFFFFFFFFF AND DUP2 MSTORE PUSH1 0x20 ADD SWAP1 DUP2 MSTORE PUSH1 0x20 ADD PUSH1 0x0 KECCAK256 PUSH1 0x0 SWAP1 SLOAD SWAP1 PUSH2 0x100 EXP SWAP1 DIV PUSH1 0xFF AND PUSH2 0xB44 JUMPI PUSH1 0x40 MLOAD PUSH32 0x8C379A000000000000000000000000000000000000000000000000000000000 DUP2 MSTORE PUSH1 0x4 ADD DUP1 DUP1 PUSH1 0x20 ADD DUP3 DUP2 SUB DUP3 MSTORE PUSH1 0xC DUP2 MSTORE PUSH1 0x20 ADD DUP1 PUSH32 0x4E6F7420616E206F776E65720000000000000000000000000000000000000000 DUP2 MSTORE POP PUSH1 0x20 ADD SWAP2 POP POP PUSH1 0x40 MLOAD DUP1 SWAP2 SUB SWAP1 REVERT JUMPDEST PUSH1 0x1 PUSH1 0x9 SLOAD GT PUSH2 0xBBC JUMPI PUSH1 0x40 MLOAD PUSH32 0x8C379A000000000000000000000000000000000000000000000000000000000 DUP2 MSTORE PUSH1 0x4 ADD DUP1 DUP1 PUSH1 0x20 ADD DUP3 DUP2 SUB DUP3 MSTORE PUSH1 0x1C DUP2 MSTORE PUSH1 0x20 ADD DUP1 PUSH32 0x43616E6E6F742072656D6F766520746865206C617374206F776E657200000000 DUP2 MSTORE POP PUSH1 0x20 ADD SWAP2 POP POP PUSH1 0x40 MLOAD DUP1 SWAP2 SUB SWAP1 REVERT JUMPDEST PUSH1 0x0 PUSH1 0x8 PUSH1 0x0 DUP4 PUSH20 0xFFFFFFFFFFFFFFFFFFFFFFFFFFFFFFFFFFFFFFFF AND PUSH20 0xFFFFFFFFFFFFFFFFFFFFFFFFFFFFFFFFFFFFFFFF AND DUP2 MSTORE PUSH1 0x20 ADD SWAP1 DUP2 MSTORE PUSH1 0x20 ADD PUSH1 0x0 KECCAK256 PUSH1 0x0 PUSH2 0x100 EXP DUP2 SLOAD DUP2 PUSH1 0xFF MUL NOT AND SWAP1 DUP4 ISZERO ISZERO MUL OR SWAP1 SSTORE POP PUSH1 0x9 PUSH1 0x0 DUP2 SLOAD DUP1 SWAP3 SWAP2 SWAP1 PUSH1 0x1 SWAP1 SUB SWAP2 SWAP1 POP SSTORE POP POP JUMP JUMPDEST PUSH1 0x6 PUSH1 0x20 MSTORE DUP1 PUSH1 0x0 MSTORE PUSH1 0x40 PUSH1 0x0 KECCAK256 PUSH1 0x0 SWAP2 POP SLOAD SWAP1 PUSH2 0x100 EXP SWAP1 DIV PUSH1 0xFF AND DUP2 JUMP JUMPDEST PUSH1 0x2 PUSH1 0x4 SLOAD EQ ISZERO PUSH2 0xCC3 JUMPI PUSH1 0x40 MLOAD PUSH32 0x8C379A000000000000000000000000000000000000000000000000000000000 DUP2 MSTORE PUSH1 0x4 ADD DUP1 DUP1 PUSH1 0x20 ADD DUP3 DUP2 SUB DUP3 MSTORE PUSH1 0x1F DUP2 MSTORE PUSH1 0x20 ADD DUP1 PUSH32 0x5265656E7472616E637947756172643A207265656E7472616E742063616C6C00 DUP2 MSTORE POP PUSH1 0x20 ADD SWAP2 POP POP PUSH1 0x40 MLOAD DUP1 SWAP2 SUB SWAP1 REVERT JUMPDEST PUSH1 0x2 PUSH1 0x4 DUP2 SWAP1 SSTORE POP PUSH1 0x5 SLOAD DUP3 GT ISZERO PUSH2 0xD43 JUMPI PUSH1 0x40 MLOAD PUSH32 0x8C379A000000000000000000000000000000000000000000000000000000000 DUP2 MSTORE PUSH1 0x4 ADD DUP1 DUP1 PUSH1 0x20 ADD DUP3 DUP2 SUB DUP3 MSTORE PUSH1 0x1A DUP2 MSTORE PUSH1 0x20 ADD DUP1 PUSH32 0x4665652065786365656473207472616E736665722076616C7565000000000000 DUP2 MSTORE POP PUSH1 0x20 ADD SWAP2 POP POP PUSH1 0x40 MLOAD DUP1 SWAP2 SUB SWAP1 REVERT JUMPDEST PUSH1 0x6 PUSH1 0x0 DUP7 DUP2 MSTORE PUSH1 0x20 ADD SWAP1 DUP2 MSTORE PUSH1 0x20 ADD PUSH1 0x0 KECCAK256 PUSH1 0x0 SWAP1 SLOAD SWAP1 PUSH2 0x100 EXP SWAP1 DIV PUSH1 0xFF AND ISZERO PUSH2 0xDD7 JUMPI PUSH1 0x40 MLOAD PUSH32 0x8C379A000000000000000000000000000000000000000000000000000000000 DUP2 MSTORE PUSH1 0x4 ADD DUP1 DUP1 PUSH1 0x20 ADD DUP3 DUP2 SUB DUP3 MSTORE PUSH1 0x1F DUP2 MSTORE PUSH1 0x20 ADD DUP1 PUSH32 0x546865206E6F746520686173206265656E20616C7265616479207370656E7400 DUP2 MSTORE POP PUSH1 0x20 ADD SWAP2 POP POP PUSH1 0x40 MLOAD DUP1 SWAP2 SUB SWAP1 REVERT JUMPDEST PUSH2 0xDE0 DUP7 PUSH2 0x1146 JUMP JUMPDEST PUSH2 0xE52 JUMPI PUSH1 0x40 MLOAD PUSH32 0x8C379A000000000000000000000000000000000000000000000000000000000 DUP2 MSTORE PUSH1 0x4 ADD DUP1 DUP1 PUSH1 0x20 ADD DUP3 DUP2 SUB DUP3 MSTORE PUSH1 0x1C DUP2 MSTORE PUSH1 0x20 ADD DUP1 PUSH32 0x43616E6E6F742066696E6420796F7572206D65726B6C6520726F6F7400000000 DUP2 MSTORE POP PUSH1 0x20 ADD SWAP2 POP POP PUSH1 0x40 MLOAD DUP1 SWAP2 SUB SWAP1 REVERT JUMPDEST PUSH32 0x0 PUSH20 0xFFFFFFFFFFFFFFFFFFFFFFFFFFFFFFFFFFFFFFFF AND PUSH4 0x695EF6F9 DUP10 DUP10 PUSH1 0x40 MLOAD DUP1 PUSH1 0xC0 ADD PUSH1 0x40 MSTORE DUP1 DUP12 PUSH1 0x0 SHR DUP2 MSTORE PUSH1 0x20 ADD DUP11 PUSH1 0x0 SHR DUP2 MSTORE PUSH1 0x20 ADD DUP10 PUSH20 0xFFFFFFFFFFFFFFFFFFFFFFFFFFFFFFFFFFFFFFFF AND DUP2 MSTORE PUSH1 0x20 ADD DUP9 PUSH20 0xFFFFFFFFFFFFFFFFFFFFFFFFFFFFFFFFFFFFFFFF AND DUP2 MSTORE PUSH1 0x20 ADD DUP8 DUP2 MSTORE PUSH1 0x20 ADD DUP7 DUP2 MSTORE POP PUSH1 0x40 MLOAD DUP5 PUSH4 0xFFFFFFFF AND PUSH1 0xE0 SHL DUP2 MSTORE PUSH1 0x4 ADD DUP1 DUP1 PUSH1 0x20 ADD DUP4 PUSH1 0x6 PUSH1 0x20 MUL DUP1 DUP4 DUP4 PUSH1 0x0 JUMPDEST DUP4 DUP2 LT ISZERO PUSH2 0xF2D JUMPI DUP1 DUP3 ADD MLOAD DUP2 DUP5 ADD MSTORE PUSH1 0x20 DUP2 ADD SWAP1 POP PUSH2 0xF12 JUMP JUMPDEST POP POP POP POP SWAP1 POP ADD DUP3 DUP2 SUB DUP3 MSTORE DUP6 DUP6 DUP3 DUP2 DUP2 MSTORE PUSH1 0x20 ADD SWAP3 POP DUP1 DUP3 DUP5 CALLDATACOPY PUSH1 0x0 DUP2 DUP5 ADD MSTORE PUSH1 0x1F NOT PUSH1 0x1F DUP3 ADD AND SWAP1 POP DUP1 DUP4 ADD SWAP3 POP POP POP SWAP5 POP POP POP POP POP PUSH1 0x20 PUSH1 0x40 MLOAD DUP1 DUP4 SUB DUP2 PUSH1 0x0 DUP8 DUP1 EXTCODESIZE ISZERO DUP1 ISZERO PUSH2 0xF7F JUMPI PUSH1 0x0 DUP1 REVERT JUMPDEST POP GAS CALL ISZERO DUP1 ISZERO PUSH2 0xF93 JUMPI RETURNDATASIZE PUSH1 0x0 DUP1 RETURNDATACOPY RETURNDATASIZE PUSH1 0x0 REVERT JUMPDEST POP POP POP POP PUSH1 0x40 MLOAD RETURNDATASIZE PUSH1 0x20 DUP2 LT ISZERO PUSH2 0xFA9 JUMPI PUSH1 0x0 DUP1 REVERT JUMPDEST DUP2 ADD SWAP1 DUP1 DUP1 MLOAD SWAP1 PUSH1 0x20 ADD SWAP1 SWAP3 SWAP2 SWAP1 POP POP POP PUSH2 0x102C JUMPI PUSH1 0x40 MLOAD PUSH32 0x8C379A000000000000000000000000000000000000000000000000000000000 DUP2 MSTORE PUSH1 0x4 ADD DUP1 DUP1 PUSH1 0x20 ADD DUP3 DUP2 SUB DUP3 MSTORE PUSH1 0x16 DUP2 MSTORE PUSH1 0x20 ADD DUP1 PUSH32 0x496E76616C69642077697468647261772070726F6F6600000000000000000000 DUP2 MSTORE POP PUSH1 0x20 ADD SWAP2 POP POP PUSH1 0x40 MLOAD DUP1 SWAP2 SUB SWAP1 REVERT JUMPDEST PUSH1 0x1 PUSH1 0x6 PUSH1 0x0 DUP8 DUP2 MSTORE PUSH1 0x20 ADD SWAP1 DUP2 MSTORE PUSH1 0x20 ADD PUSH1 0x0 KECCAK256 PUSH1 0x0 PUSH2 0x100 EXP DUP2 SLOAD DUP2 PUSH1 0xFF MUL NOT AND SWAP1 DUP4 ISZERO ISZERO MUL OR SWAP1 SSTORE POP PUSH2 0x1064 DUP5 DUP5 DUP5 DUP5 PUSH2 0x21FC JUMP JUMPDEST DUP3 PUSH20 0xFFFFFFFFFFFFFFFFFFFFFFFFFFFFFFFFFFFFFFFF AND PUSH32 0xE9E508BAD6D4C3227E881CA19068F099DA81B5164DD6D62B2EAF1E8BC6C34931 DUP6 DUP8 DUP6 PUSH1 0x40 MLOAD DUP1 DUP5 PUSH20 0xFFFFFFFFFFFFFFFFFFFFFFFFFFFFFFFFFFFFFFFF AND DUP2 MSTORE PUSH1 0x20 ADD DUP4 DUP2 MSTORE PUSH1 0x20 ADD DUP3 DUP2 MSTORE PUSH1 0x20 ADD SWAP4 POP POP POP POP PUSH1 0x40 MLOAD DUP1 SWAP2 SUB SWAP1 LOG2 PUSH1 0x1 PUSH1 0x4 DUP2 SWAP1 SSTORE POP POP POP POP POP POP POP POP POP JUMP JUMPDEST PUSH32 0x0 DUP2 JUMP JUMPDEST PUSH32 0x30644E72E131A029B85045B68181585D2833E84879B9709143E1F593F0000001 DUP2 JUMP JUMPDEST PUSH1 0x0 DUP1 SLOAD SWAP1 PUSH2 0x100 EXP SWAP1 DIV PUSH4 0xFFFFFFFF AND DUP2 JUMP JUMPDEST PUSH1 0x0 DUP1 PUSH1 0x0 SHL DUP3 EQ ISZERO PUSH2 0x115C JUMPI PUSH1 0x0 SWAP1 POP PUSH2 0x11DD JUMP JUMPDEST PUSH1 0x0 PUSH1 0x3 PUSH1 0x0 SWAP1 SLOAD SWAP1 PUSH2 0x100 EXP SWAP1 DIV PUSH4 0xFFFFFFFF AND SWAP1 POP PUSH1 0x0 DUP2 SWAP1 POP JUMPDEST PUSH1 0x2 PUSH1 0x0 DUP3 PUSH4 0xFFFFFFFF AND DUP2 MSTORE PUSH1 0x20 ADD SWAP1 DUP2 MSTORE PUSH1 0x20 ADD PUSH1 0x0 KECCAK256 SLOAD DUP5 EQ ISZERO PUSH2 0x11A5 JUMPI PUSH1 0x1 SWAP3 POP POP POP PUSH2 0x11DD JUMP JUMPDEST PUSH1 0x0 DUP2 PUSH4 0xFFFFFFFF AND EQ ISZERO PUSH2 0x11B9 JUMPI PUSH1 0x1E SWAP1 POP JUMPDEST DUP1 DUP1 PUSH1 0x1 SWAP1 SUB SWAP2 POP POP DUP2 PUSH4 0xFFFFFFFF AND DUP2 PUSH4 0xFFFFFFFF AND EQ ISZERO PUSH2 0x1179 JUMPI PUSH1 0x0 SWAP3 POP POP POP JUMPDEST SWAP2 SWAP1 POP JUMP JUMPDEST PUSH1 0x0 PUSH1 0xA PUSH1 0x0 DUP4 PUSH20 0xFFFFFFFFFFFFFFFFFFFFFFFFFFFFFFFFFFFFFFFF AND PUSH20 0xFFFFFFFFFFFFFFFFFFFFFFFFFFFFFFFFFFFFFFFF AND DUP2 MSTORE PUSH1 0x20 ADD SWAP1 DUP2 MSTORE PUSH1 0x20 ADD PUSH1 0x0 KECCAK256 PUSH1 0x0 SWAP1 SLOAD SWAP1 PUSH2 0x100 EXP SWAP1 DIV PUSH1 0xFF AND SWAP1 POP SWAP2 SWAP1 POP JUMP JUMPDEST PUSH1 0x8 PUSH1 0x0 CALLER PUSH20 0xFFFFFFFFFFFFFFFFFFFFFFFFFFFFFFFFFFFFFFFF AND PUSH20 0xFFFFFFFFFFFFFFFFFFFFFFFFFFFFFFFFFFFFFFFF AND DUP2 MSTORE PUSH1 0x20 ADD SWAP1 DUP2 MSTORE PUSH1 0x20 ADD PUSH1 0x0 KECCAK256 PUSH1 0x0 SWAP1 SLOAD SWAP1 PUSH2 0x100 EXP SWAP1 DIV PUSH1 0xFF AND PUSH2 0x12F7 JUMPI PUSH1 0x40 MLOAD PUSH32 0x8C379A000000000000000000000000000000000000000000000000000000000 DUP2 MSTORE PUSH1 0x4 ADD DUP1 DUP1 PUSH1 0x20 ADD DUP3 DUP2 SUB DUP3 MSTORE PUSH1 0xC DUP2 MSTORE PUSH1 0x20 ADD DUP1 PUSH32 0x4E6F7420616E206F776E65720000000000000000000000000000000000000000 DUP2 MSTORE POP PUSH1 0x20 ADD SWAP2 POP POP PUSH1 0x40 MLOAD DUP1 SWAP2 SUB SWAP1 REVERT JUMPDEST PUSH1 0x8 PUSH1 0x0 DUP3 PUSH20 0xFFFFFFFFFFFFFFFFFFFFFFFFFFFFFFFFFFFFFFFF AND PUSH20 0xFFFFFFFFFFFFFFFFFFFFFFFFFFFFFFFFFFFFFFFF AND DUP2 MSTORE PUSH1 0x20 ADD SWAP1 DUP2 MSTORE PUSH1 0x20 ADD PUSH1 0x0 KECCAK256 PUSH1 0x0 SWAP1 SLOAD SWAP1 PUSH2 0x100 EXP SWAP1 DIV PUSH1 0xFF AND ISZERO PUSH2 0x13B7 JUMPI PUSH1 0x40 MLOAD PUSH32 0x8C379A000000000000000000000000000000000000000000000000000000000 DUP2 MSTORE PUSH1 0x4 ADD DUP1 DUP1 PUSH1 0x20 ADD DUP3 DUP2 SUB DUP3 MSTORE PUSH1 0x10 DUP2 MSTORE PUSH1 0x20 ADD DUP1 PUSH32 0x416C726561647920616E206F776E657200000000000000000000000000000000 DUP2 MSTORE POP PUSH1 0x20 ADD SWAP2 POP POP PUSH1 0x40 MLOAD DUP1 SWAP2 SUB SWAP1 REVERT JUMPDEST PUSH1 0x1 PUSH1 0x8 PUSH1 0x0 DUP4 PUSH20 0xFFFFFFFFFFFFFFFFFFFFFFFFFFFFFFFFFFFFFFFF AND PUSH20 0xFFFFFFFFFFFFFFFFFFFFFFFFFFFFFFFFFFFFFFFF AND DUP2 MSTORE PUSH1 0x20 ADD SWAP1 DUP2 MSTORE PUSH1 0x20 ADD PUSH1 0x0 KECCAK256 PUSH1 0x0 PUSH2 0x100 EXP DUP2 SLOAD DUP2 PUSH1 0xFF MUL NOT AND SWAP1 DUP4 ISZERO ISZERO MUL OR SWAP1 SSTORE POP PUSH1 0x9 PUSH1 0x0 DUP2 SLOAD DUP1 SWAP3 SWAP2 SWAP1 PUSH1 0x1 ADD SWAP2 SWAP1 POP SSTORE POP POP JUMP JUMPDEST PUSH1 0x7 PUSH1 0x20 MSTORE DUP1 PUSH1 0x0 MSTORE PUSH1 0x40 PUSH1 0x0 KECCAK256 PUSH1 0x0 SWAP2 POP SLOAD SWAP1 PUSH2 0x100 EXP SWAP1 DIV PUSH1 0xFF AND DUP2 JUMP JUMPDEST PUSH1 0x0 PUSH1 0xA PUSH1 0x0 DUP4 PUSH20 0xFFFFFFFFFFFFFFFFFFFFFFFFFFFFFFFFFFFFFFFF AND PUSH20 0xFFFFFFFFFFFFFFFFFFFFFFFFFFFFFFFFFFFFFFFF AND DUP2 MSTORE PUSH1 0x20 ADD SWAP1 DUP2 MSTORE PUSH1 0x20 ADD PUSH1 0x0 KECCAK256 PUSH1 0x0 PUSH2 0x100 EXP DUP2 SLOAD DUP2 PUSH1 0xFF MUL NOT AND SWAP1 DUP4 ISZERO ISZERO MUL OR SWAP1 SSTORE POP POP JUMP JUMPDEST PUSH1 0x5 SLOAD DUP2 JUMP JUMPDEST PUSH1 0x0 PUSH32 0x30644E72E131A029B85045B68181585D2833E84879B9709143E1F593F0000001 DUP4 PUSH1 0x0 SHR LT PUSH2 0x153F JUMPI PUSH1 0x40 MLOAD PUSH32 0x8C379A000000000000000000000000000000000000000000000000000000000 DUP2 MSTORE PUSH1 0x4 ADD DUP1 DUP1 PUSH1 0x20 ADD DUP3 DUP2 SUB DUP3 MSTORE PUSH1 0x20 DUP2 MSTORE PUSH1 0x20 ADD DUP1 PUSH32 0x5F6C6566742073686F756C6420626520696E7369646520746865206669656C64 DUP2 MSTORE POP PUSH1 0x20 ADD SWAP2 POP POP PUSH1 0x40 MLOAD DUP1 SWAP2 SUB SWAP1 REVERT JUMPDEST PUSH32 0x30644E72E131A029B85045B68181585D2833E84879B9709143E1F593F0000001 DUP3 PUSH1 0x0 SHR LT PUSH2 0x15BA JUMPI PUSH1 0x40 MLOAD PUSH32 0x8C379A000000000000000000000000000000000000000000000000000000000 DUP2 MSTORE PUSH1 0x4 ADD DUP1 DUP1 PUSH1 0x20 ADD DUP3 DUP2 SUB DUP3 MSTORE PUSH1 0x21 DUP2 MSTORE PUSH1 0x20 ADD DUP1 PUSH2 0x27CA PUSH1 0x21 SWAP2 CODECOPY PUSH1 0x40 ADD SWAP2 POP POP PUSH1 0x40 MLOAD DUP1 SWAP2 SUB SWAP1 REVERT JUMPDEST PUSH1 0x0 DUP4 PUSH1 0x0 SHR SWAP1 POP PUSH1 0x0 DUP6 PUSH20 0xFFFFFFFFFFFFFFFFFFFFFFFFFFFFFFFFFFFFFFFF AND PUSH4 0xF47D33B5 DUP4 DUP4 PUSH1 0x40 MLOAD DUP4 PUSH4 0xFFFFFFFF AND PUSH1 0xE0 SHL DUP2 MSTORE PUSH1 0x4 ADD DUP1 DUP4 DUP2 MSTORE PUSH1 0x20 ADD DUP3 DUP2 MSTORE PUSH1 0x20 ADD SWAP3 POP POP POP PUSH1 0x40 DUP1 MLOAD DUP1 DUP4 SUB DUP2 DUP7 DUP1 EXTCODESIZE ISZERO DUP1 ISZERO PUSH2 0x161C JUMPI PUSH1 0x0 DUP1 REVERT JUMPDEST POP GAS STATICCALL ISZERO DUP1 ISZERO PUSH2 0x1630 JUMPI RETURNDATASIZE PUSH1 0x0 DUP1 RETURNDATACOPY RETURNDATASIZE PUSH1 0x0 REVERT JUMPDEST POP POP POP POP PUSH1 0x40 MLOAD RETURNDATASIZE PUSH1 0x40 DUP2 LT ISZERO PUSH2 0x1646 JUMPI PUSH1 0x0 DUP1 REVERT JUMPDEST DUP2 ADD SWAP1 DUP1 DUP1 MLOAD SWAP1 PUSH1 0x20 ADD SWAP1 SWAP3 SWAP2 SWAP1 DUP1 MLOAD SWAP1 PUSH1 0x20 ADD SWAP1 SWAP3 SWAP2 SWAP1 POP POP POP DUP1 SWAP3 POP DUP2 SWAP4 POP POP POP PUSH32 0x30644E72E131A029B85045B68181585D2833E84879B9709143E1F593F0000001 DUP1 PUSH2 0x1691 JUMPI INVALID JUMPDEST DUP5 PUSH1 0x0 SHR DUP4 ADDMOD SWAP2 POP DUP6 PUSH20 0xFFFFFFFFFFFFFFFFFFFFFFFFFFFFFFFFFFFFFFFF AND PUSH4 0xF47D33B5 DUP4 DUP4 PUSH1 0x40 MLOAD DUP4 PUSH4 0xFFFFFFFF AND PUSH1 0xE0 SHL DUP2 MSTORE PUSH1 0x4 ADD DUP1 DUP4 DUP2 MSTORE PUSH1 0x20 ADD DUP3 DUP2 MSTORE PUSH1 0x20 ADD SWAP3 POP POP POP PUSH1 0x40 DUP1 MLOAD DUP1 DUP4 SUB DUP2 DUP7 DUP1 EXTCODESIZE ISZERO DUP1 ISZERO PUSH2 0x16F1 JUMPI PUSH1 0x0 DUP1 REVERT JUMPDEST POP GAS STATICCALL ISZERO DUP1 ISZERO PUSH2 0x1705 JUMPI RETURNDATASIZE PUSH1 0x0 DUP1 RETURNDATACOPY RETURNDATASIZE PUSH1 0x0 REVERT JUMPDEST POP POP POP POP PUSH1 0x40 MLOAD RETURNDATASIZE PUSH1 0x40 DUP2 LT ISZERO PUSH2 0x171B JUMPI PUSH1 0x0 DUP1 REVERT JUMPDEST DUP2 ADD SWAP1 DUP1 DUP1 MLOAD SWAP1 PUSH1 0x20 ADD SWAP1 SWAP3 SWAP2 SWAP1 DUP1 MLOAD SWAP1 PUSH1 0x20 ADD SWAP1 SWAP3 SWAP2 SWAP1 POP POP POP DUP1 SWAP3 POP DUP2 SWAP4 POP POP POP DUP2 PUSH1 0x0 SHL SWAP3 POP POP POP SWAP4 SWAP3 POP POP POP JUMP JUMPDEST PUSH1 0x3 PUSH1 0x0 SWAP1 SLOAD SWAP1 PUSH2 0x100 EXP SWAP1 DIV PUSH4 0xFFFFFFFF AND DUP2 JUMP JUMPDEST PUSH1 0x60 DUP3 DUP3 SWAP1 POP PUSH8 0xFFFFFFFFFFFFFFFF DUP2 GT DUP1 ISZERO PUSH2 0x177F JUMPI PUSH1 0x0 DUP1 REVERT JUMPDEST POP PUSH1 0x40 MLOAD SWAP1 DUP1 DUP3 MSTORE DUP1 PUSH1 0x20 MUL PUSH1 0x20 ADD DUP3 ADD PUSH1 0x40 MSTORE DUP1 ISZERO PUSH2 0x17AE JUMPI DUP2 PUSH1 0x20 ADD PUSH1 0x20 DUP3 MUL DUP1 CALLDATASIZE DUP4 CALLDATACOPY DUP1 DUP3 ADD SWAP2 POP POP SWAP1 POP JUMPDEST POP SWAP1 POP PUSH1 0x0 JUMPDEST DUP4 DUP4 SWAP1 POP DUP2 LT ISZERO PUSH2 0x180D JUMPI PUSH2 0x17DA DUP5 DUP5 DUP4 DUP2 DUP2 LT PUSH2 0x17CE JUMPI INVALID JUMPDEST SWAP1 POP PUSH1 0x20 MUL ADD CALLDATALOAD PUSH2 0x1A6A JUMP JUMPDEST ISZERO PUSH2 0x1800 JUMPI PUSH1 0x1 DUP3 DUP3 DUP2 MLOAD DUP2 LT PUSH2 0x17ED JUMPI INVALID JUMPDEST PUSH1 0x20 MUL PUSH1 0x20 ADD ADD SWAP1 ISZERO ISZERO SWAP1 DUP2 ISZERO ISZERO DUP2 MSTORE POP POP JUMPDEST DUP1 DUP1 PUSH1 0x1 ADD SWAP2 POP POP PUSH2 0x17B4 JUMP JUMPDEST POP SWAP3 SWAP2 POP POP JUMP JUMPDEST PUSH1 0x2 PUSH1 0x4 SLOAD EQ ISZERO PUSH2 0x188D JUMPI PUSH1 0x40 MLOAD PUSH32 0x8C379A000000000000000000000000000000000000000000000000000000000 DUP2 MSTORE PUSH1 0x4 ADD DUP1 DUP1 PUSH1 0x20 ADD DUP3 DUP2 SUB DUP3 MSTORE PUSH1 0x1F DUP2 MSTORE PUSH1 0x20 ADD DUP1 PUSH32 0x5265656E7472616E637947756172643A207265656E7472616E742063616C6C00 DUP2 MSTORE POP PUSH1 0x20 ADD SWAP2 POP POP PUSH1 0x40 MLOAD DUP1 SWAP2 SUB SWAP1 REVERT JUMPDEST PUSH1 0x2 PUSH1 0x4 DUP2 SWAP1 SSTORE POP PUSH1 0x7 PUSH1 0x0 DUP3 DUP2 MSTORE PUSH1 0x20 ADD SWAP1 DUP2 MSTORE PUSH1 0x20 ADD PUSH1 0x0 KECCAK256 PUSH1 0x0 SWAP1 SLOAD SWAP1 PUSH2 0x100 EXP SWAP1 DIV PUSH1 0xFF AND ISZERO PUSH2 0x190C JUMPI PUSH1 0x40 MLOAD PUSH32 0x8C379A000000000000000000000000000000000000000000000000000000000 DUP2 MSTORE PUSH1 0x4 ADD DUP1 DUP1 PUSH1 0x20 ADD DUP3 DUP2 SUB DUP3 MSTORE PUSH1 0x21 DUP2 MSTORE PUSH1 0x20 ADD DUP1 PUSH2 0x281F PUSH1 0x21 SWAP2 CODECOPY PUSH1 0x40 ADD SWAP2 POP POP PUSH1 0x40 MLOAD DUP1 SWAP2 SUB SWAP1 REVERT JUMPDEST PUSH1 0x0 PUSH2 0x1917 DUP3 PUSH2 0x2441 JUMP JUMPDEST SWAP1 POP PUSH1 0x1 PUSH1 0x7 PUSH1 0x0 DUP5 DUP2 MSTORE PUSH1 0x20 ADD SWAP1 DUP2 MSTORE PUSH1 0x20 ADD PUSH1 0x0 KECCAK256 PUSH1 0x0 PUSH2 0x100 EXP DUP2 SLOAD DUP2 PUSH1 0xFF MUL NOT AND SWAP1 DUP4 ISZERO ISZERO MUL OR SWAP1 SSTORE POP PUSH2 0x194D PUSH2 0x2676 JUMP JUMPDEST DUP2 PUSH32 0xA945E51EEC50AB98C161376F0DB4CF2AEBA3EC92755FE2FCD388BDBBB80FF196 DUP3 TIMESTAMP PUSH1 0x40 MLOAD DUP1 DUP4 PUSH4 0xFFFFFFFF AND DUP2 MSTORE PUSH1 0x20 ADD DUP3 DUP2 MSTORE PUSH1 0x20 ADD SWAP3 POP POP POP PUSH1 0x40 MLOAD DUP1 SWAP2 SUB SWAP1 LOG2 POP PUSH1 0x1 PUSH1 0x4 DUP2 SWAP1 SSTORE POP POP JUMP JUMPDEST PUSH1 0x0 PUSH1 0x2 PUSH1 0x0 PUSH1 0x3 PUSH1 0x0 SWAP1 SLOAD SWAP1 PUSH2 0x100 EXP SWAP1 DIV PUSH4 0xFFFFFFFF AND PUSH4 0xFFFFFFFF AND DUP2 MSTORE PUSH1 0x20 ADD SWAP1 DUP2 MSTORE PUSH1 0x20 ADD PUSH1 0x0 KECCAK256 SLOAD SWAP1 POP SWAP1 JUMP JUMPDEST PUSH1 0x2 PUSH1 0x20 MSTORE DUP1 PUSH1 0x0 MSTORE PUSH1 0x40 PUSH1 0x0 KECCAK256 PUSH1 0x0 SWAP2 POP SWAP1 POP SLOAD DUP2 JUMP JUMPDEST PUSH1 0x1E DUP2 JUMP JUMPDEST PUSH1 0xA PUSH1 0x20 MSTORE DUP1 PUSH1 0x0 MSTORE PUSH1 0x40 PUSH1 0x0 KECCAK256 PUSH1 0x0 SWAP2 POP SLOAD SWAP1 PUSH2 0x100 EXP SWAP1 DIV PUSH1 0xFF AND DUP2 JUMP JUMPDEST PUSH1 0x1 PUSH1 0xA PUSH1 0x0 DUP4 PUSH20 0xFFFFFFFFFFFFFFFFFFFFFFFFFFFFFFFFFFFFFFFF AND PUSH20 0xFFFFFFFFFFFFFFFFFFFFFFFFFFFFFFFFFFFFFFFF AND DUP2 MSTORE PUSH1 0x20 ADD SWAP1 DUP2 MSTORE PUSH1 0x20 ADD PUSH1 0x0 KECCAK256 PUSH1 0x0 PUSH2 0x100 EXP DUP2 SLOAD DUP2 PUSH1 0xFF MUL NOT AND SWAP1 DUP4 ISZERO ISZERO MUL OR SWAP1 SSTORE POP POP JUMP JUMPDEST PUSH1 0x0 PUSH1 0x6 PUSH1 0x0 DUP4 DUP2 MSTORE PUSH1 0x20 ADD SWAP1 DUP2 MSTORE PUSH1 0x20 ADD PUSH1 0x0 KECCAK256 PUSH1 0x0 SWAP1 SLOAD SWAP1 PUSH2 0x100 EXP SWAP1 DIV PUSH1 0xFF AND SWAP1 POP SWAP2 SWAP1 POP JUMP JUMPDEST PUSH1 0x0 DUP1 DUP3 EQ ISZERO PUSH2 0x1AC9 JUMPI PUSH32 0x2FE54C60D3ACABF3343A35B6EBA15DB4821B340F76E741E2249685ED4899AF6C PUSH1 0x0 SHL SWAP1 POP PUSH2 0x2181 JUMP JUMPDEST PUSH1 0x1 DUP3 EQ ISZERO PUSH2 0x1AFD JUMPI PUSH32 0x256A6135777EEE2FD26F54B8B7037A25439D5235CAEE224154186D2B8A52E31D PUSH1 0x0 SHL SWAP1 POP PUSH2 0x2181 JUMP JUMPDEST PUSH1 0x2 DUP3 EQ ISZERO PUSH2 0x1B31 JUMPI PUSH32 0x1151949895E82AB19924DE92C40A3D6F7BCB60D92B00504B8199613683F0C200 PUSH1 0x0 SHL SWAP1 POP PUSH2 0x2181 JUMP JUMPDEST PUSH1 0x3 DUP3 EQ ISZERO PUSH2 0x1B65 JUMPI PUSH32 0x20121EE811489FF8D61F09FB89E313F14959A0F28BB428A20DBA6B0B068B3BDB PUSH1 0x0 SHL SWAP1 POP PUSH2 0x2181 JUMP JUMPDEST PUSH1 0x4 DUP3 EQ ISZERO PUSH2 0x1B99 JUMPI PUSH32 0xA89CA6FFA14CC462CFEDB842C30ED221A50A3D6BF022A6A57DC82AB24C157C9 PUSH1 0x0 SHL SWAP1 POP PUSH2 0x2181 JUMP JUMPDEST PUSH1 0x5 DUP3 EQ ISZERO PUSH2 0x1BCD JUMPI PUSH32 0x24CA05C2B5CD42E890D6BE94C68D0689F4F21C9CEC9C0F13FE41D566DFB54959 PUSH1 0x0 SHL SWAP1 POP PUSH2 0x2181 JUMP JUMPDEST PUSH1 0x6 DUP3 EQ ISZERO PUSH2 0x1C01 JUMPI PUSH32 0x1CCB97C932565A92C60156BDBA2D08F3BF1377464E025CEE765679E604A7315C PUSH1 0x0 SHL SWAP1 POP PUSH2 0x2181 JUMP JUMPDEST PUSH1 0x7 DUP3 EQ ISZERO PUSH2 0x1C35 JUMPI PUSH32 0x19156FBD7D1A8BF5CBA8909367DE1B624534EBAB4F0F79E003BCCDD1B182BDB4 PUSH1 0x0 SHL SWAP1 POP PUSH2 0x2181 JUMP JUMPDEST PUSH1 0x8 DUP3 EQ ISZERO PUSH2 0x1C69 JUMPI PUSH32 0x261AF8C1F0912E465744641409F622D466C3920AC6E5FF37E36604CB11DFFF80 PUSH1 0x0 SHL SWAP1 POP PUSH2 0x2181 JUMP JUMPDEST PUSH1 0x9 DUP3 EQ ISZERO PUSH2 0x1C9C JUMPI PUSH31 0x58459724FF6CA5A1652FCBC3E82B93895CF08E975B19BEAB3F54C217D1C007 PUSH1 0x0 SHL SWAP1 POP PUSH2 0x2181 JUMP JUMPDEST PUSH1 0xA DUP3 EQ ISZERO PUSH2 0x1CD0 JUMPI PUSH32 0x1F04EF20DEE48D39984D8EABE768A70EAFA6310AD20849D4573C3C40C2AD1E30 PUSH1 0x0 SHL SWAP1 POP PUSH2 0x2181 JUMP JUMPDEST PUSH1 0xB DUP3 EQ ISZERO PUSH2 0x1D04 JUMPI PUSH32 0x1BEA3DEC5DAB51567CE7E200A30F7BA6D4276AEAA53E2686F962A46C66D511E5 PUSH1 0x0 SHL SWAP1 POP PUSH2 0x2181 JUMP JUMPDEST PUSH1 0xC DUP3 EQ ISZERO PUSH2 0x1D38 JUMPI PUSH32 0xEE0F941E2DA4B9E31C3CA97A40D8FA9CE68D97C084177071B3CB46CD3372F0F PUSH1 0x0 SHL SWAP1 POP PUSH2 0x2181 JUMP JUMPDEST PUSH1 0xD DUP3 EQ ISZERO PUSH2 0x1D6C JUMPI PUSH32 0x1CA9503E8935884501BBAF20BE14EB4C46B89772C97B96E3B2EBF3A36A948BBD PUSH1 0x0 SHL SWAP1 POP PUSH2 0x2181 JUMP JUMPDEST PUSH1 0xE DUP3 EQ ISZERO PUSH2 0x1DA0 JUMPI PUSH32 0x133A80E30697CD55D8F7D4B0965B7BE24057BA5DC3DA898EE2187232446CB108 PUSH1 0x0 SHL SWAP1 POP PUSH2 0x2181 JUMP JUMPDEST PUSH1 0xF DUP3 EQ ISZERO PUSH2 0x1DD4 JUMPI PUSH32 0x13E6D8FC88839ED76E182C2A779AF5B2C0DA9DD18C90427A644F7E148A6253B6 PUSH1 0x0 SHL SWAP1 POP PUSH2 0x2181 JUMP JUMPDEST PUSH1 0x10 DUP3 EQ ISZERO PUSH2 0x1E08 JUMPI PUSH32 0x1EB16B057A477F4BC8F572EA6BEE39561098F78F15BFB3699DCBB7BD8DB61854 PUSH1 0x0 SHL SWAP1 POP PUSH2 0x2181 JUMP JUMPDEST PUSH1 0x11 DUP3 EQ ISZERO PUSH2 0x1E3C JUMPI PUSH32 0xDA2CB16A1CEAABF1C16B838F7A9E3F2A3A3088D9E0A6DEBAA748114620696EA PUSH1 0x0 SHL SWAP1 POP PUSH2 0x2181 JUMP JUMPDEST PUSH1 0x12 DUP3 EQ ISZERO PUSH2 0x1E70 JUMPI PUSH32 0x24A3B3D822420B14B5D8CB6C28A574F01E98EA9E940551D2EBD75CEE12649F9D PUSH1 0x0 SHL SWAP1 POP PUSH2 0x2181 JUMP JUMPDEST PUSH1 0x13 DUP3 EQ ISZERO PUSH2 0x1EA4 JUMPI PUSH32 0x198622ACBD783D1B0D9064105B1FC8E4D8889DE95C4C519B3F635809FE6AFC05 PUSH1 0x0 SHL SWAP1 POP PUSH2 0x2181 JUMP JUMPDEST PUSH1 0x14 DUP3 EQ ISZERO PUSH2 0x1ED8 JUMPI PUSH32 0x29D7ED391256CCC3EA596C86E933B89FF339D25EA8DDCED975AE2FE30B5296D4 PUSH1 0x0 SHL SWAP1 POP PUSH2 0x2181 JUMP JUMPDEST PUSH1 0x15 DUP3 EQ ISZERO PUSH2 0x1F0C JUMPI PUSH32 0x19BE59F2F0413CE78C0C3703A3A5451B1D7F39629FA33ABD11548A76065B2967 PUSH1 0x0 SHL SWAP1 POP PUSH2 0x2181 JUMP JUMPDEST PUSH1 0x16 DUP3 EQ ISZERO PUSH2 0x1F40 JUMPI PUSH32 0x1FF3F61797E538B70E619310D33F2A063E7EB59104E112E95738DA1254DC3453 PUSH1 0x0 SHL SWAP1 POP PUSH2 0x2181 JUMP JUMPDEST PUSH1 0x17 DUP3 EQ ISZERO PUSH2 0x1F74 JUMPI PUSH32 0x10C16AE9959CF8358980D9DD9616E48228737310A10E2B6B731C1A548F036C48 PUSH1 0x0 SHL SWAP1 POP PUSH2 0x2181 JUMP JUMPDEST PUSH1 0x18 DUP3 EQ ISZERO PUSH2 0x1FA8 JUMPI PUSH32 0xBA433A63174A90AC20992E75E3095496812B652685B5E1A2EAE0B1BF4E8FCD1 PUSH1 0x0 SHL SWAP1 POP PUSH2 0x2181 JUMP JUMPDEST PUSH1 0x19 DUP3 EQ ISZERO PUSH2 0x1FDC JUMPI PUSH32 0x19DDB9DF2BC98D987D0DFECA9D2B643DEAFAB8F7036562E627C3667266A044C PUSH1 0x0 SHL SWAP1 POP PUSH2 0x2181 JUMP JUMPDEST PUSH1 0x1A DUP3 EQ ISZERO PUSH2 0x2010 JUMPI PUSH32 0x2D3C88B23175C5A5565DB928414C66D1912B11ACF974B2E644CAAAC04739CE99 PUSH1 0x0 SHL SWAP1 POP PUSH2 0x2181 JUMP JUMPDEST PUSH1 0x1B DUP3 EQ ISZERO PUSH2 0x2044 JUMPI PUSH32 0x2EAB55F6AE4E66E32C5189EED5C470840863445760F5ED7E7B69B2A62600F354 PUSH1 0x0 SHL SWAP1 POP PUSH2 0x2181 JUMP JUMPDEST PUSH1 0x1C DUP3 EQ ISZERO PUSH2 0x2077 JUMPI PUSH31 0x2DF37A2642621802383CF952BF4DD1F32E05433BEEB1FD41031FB7EACE979D PUSH1 0x0 SHL SWAP1 POP PUSH2 0x2181 JUMP JUMPDEST PUSH1 0x1D DUP3 EQ ISZERO PUSH2 0x20AB JUMPI PUSH32 0x104AEB41435DB66C3E62FECCC1D6F5D98D0A0ED75D1374DB457CF462E3A1F427 PUSH1 0x0 SHL SWAP1 POP PUSH2 0x2181 JUMP JUMPDEST PUSH1 0x1E DUP3 EQ ISZERO PUSH2 0x20DF JUMPI PUSH32 0x1F3C6FD858E9A7D4B0D1F38E256A09D81D5A5E3C963987E2D4B814CFAB7C6EBB PUSH1 0x0 SHL SWAP1 POP PUSH2 0x2181 JUMP JUMPDEST PUSH1 0x1F DUP3 EQ ISZERO PUSH2 0x2113 JUMPI PUSH32 0x2C7A07D20DFF79D01FECEDC1134284A8D08436606C93693B67E333F671BF69CC PUSH1 0x0 SHL SWAP1 POP PUSH2 0x2181 JUMP JUMPDEST PUSH1 0x40 MLOAD PUSH32 0x8C379A000000000000000000000000000000000000000000000000000000000 DUP2 MSTORE PUSH1 0x4 ADD DUP1 DUP1 PUSH1 0x20 ADD DUP3 DUP2 SUB DUP3 MSTORE PUSH1 0x13 DUP2 MSTORE PUSH1 0x20 ADD DUP1 PUSH32 0x496E646578206F7574206F6620626F756E647300000000000000000000000000 DUP2 MSTORE POP PUSH1 0x20 ADD SWAP2 POP POP PUSH1 0x40 MLOAD DUP1 SWAP2 SUB SWAP1 REVERT JUMPDEST SWAP2 SWAP1 POP JUMP JUMPDEST PUSH32 0x2FE54C60D3ACABF3343A35B6EBA15DB4821B340F76E741E2249685ED4899AF6C DUP2 JUMP JUMPDEST PUSH32 0x0 DUP2 JUMP JUMPDEST PUSH1 0x1 PUSH1 0x20 MSTORE DUP1 PUSH1 0x0 MSTORE PUSH1 0x40 PUSH1 0x0 KECCAK256 PUSH1 0x0 SWAP2 POP SWAP1 POP SLOAD DUP2 JUMP JUMPDEST PUSH1 0x3 PUSH1 0x4 SWAP1 SLOAD SWAP1 PUSH2 0x100 EXP SWAP1 DIV PUSH4 0xFFFFFFFF AND DUP2 JUMP JUMPDEST PUSH1 0x0 CALLVALUE EQ PUSH2 0x2255 JUMPI PUSH1 0x40 MLOAD PUSH32 0x8C379A000000000000000000000000000000000000000000000000000000000 DUP2 MSTORE PUSH1 0x4 ADD DUP1 DUP1 PUSH1 0x20 ADD DUP3 DUP2 SUB DUP3 MSTORE PUSH1 0x35 DUP2 MSTORE PUSH1 0x20 ADD DUP1 PUSH2 0x28B8 PUSH1 0x35 SWAP2 CODECOPY PUSH1 0x40 ADD SWAP2 POP POP PUSH1 0x40 MLOAD DUP1 SWAP2 SUB SWAP1 REVERT JUMPDEST PUSH1 0x0 DUP2 EQ PUSH2 0x22AE JUMPI PUSH1 0x40 MLOAD PUSH32 0x8C379A000000000000000000000000000000000000000000000000000000000 DUP2 MSTORE PUSH1 0x4 ADD DUP1 DUP1 PUSH1 0x20 ADD DUP3 DUP2 SUB DUP3 MSTORE PUSH1 0x34 DUP2 MSTORE PUSH1 0x20 ADD DUP1 PUSH2 0x27EB PUSH1 0x34 SWAP2 CODECOPY PUSH1 0x40 ADD SWAP2 POP POP PUSH1 0x40 MLOAD DUP1 SWAP2 SUB SWAP1 REVERT JUMPDEST PUSH1 0x0 DUP5 PUSH20 0xFFFFFFFFFFFFFFFFFFFFFFFFFFFFFFFFFFFFFFFF AND DUP4 PUSH1 0x5 SLOAD SUB PUSH1 0x40 MLOAD DUP1 PUSH1 0x0 ADD SWAP1 POP PUSH1 0x0 PUSH1 0x40 MLOAD DUP1 DUP4 SUB DUP2 DUP6 DUP8 GAS CALL SWAP3 POP POP POP RETURNDATASIZE DUP1 PUSH1 0x0 DUP2 EQ PUSH2 0x2312 JUMPI PUSH1 0x40 MLOAD SWAP2 POP PUSH1 0x1F NOT PUSH1 0x3F RETURNDATASIZE ADD AND DUP3 ADD PUSH1 0x40 MSTORE RETURNDATASIZE DUP3 MSTORE RETURNDATASIZE PUSH1 0x0 PUSH1 0x20 DUP5 ADD RETURNDATACOPY PUSH2 0x2317 JUMP JUMPDEST PUSH1 0x60 SWAP2 POP JUMPDEST POP POP SWAP1 POP DUP1 PUSH2 0x2371 JUMPI PUSH1 0x40 MLOAD PUSH32 0x8C379A000000000000000000000000000000000000000000000000000000000 DUP2 MSTORE PUSH1 0x4 ADD DUP1 DUP1 PUSH1 0x20 ADD DUP3 DUP2 SUB DUP3 MSTORE PUSH1 0x25 DUP2 MSTORE PUSH1 0x20 ADD DUP1 PUSH2 0x2840 PUSH1 0x25 SWAP2 CODECOPY PUSH1 0x40 ADD SWAP2 POP POP PUSH1 0x40 MLOAD DUP1 SWAP2 SUB SWAP1 REVERT JUMPDEST PUSH1 0x0 DUP4 GT ISZERO PUSH2 0x243A JUMPI DUP4 PUSH20 0xFFFFFFFFFFFFFFFFFFFFFFFFFFFFFFFFFFFFFFFF AND DUP4 PUSH1 0x40 MLOAD DUP1 PUSH1 0x0 ADD SWAP1 POP PUSH1 0x0 PUSH1 0x40 MLOAD DUP1 DUP4 SUB DUP2 DUP6 DUP8 GAS CALL SWAP3 POP POP POP RETURNDATASIZE DUP1 PUSH1 0x0 DUP2 EQ PUSH2 0x23D8 JUMPI PUSH1 0x40 MLOAD SWAP2 POP PUSH1 0x1F NOT PUSH1 0x3F RETURNDATASIZE ADD AND DUP3 ADD PUSH1 0x40 MSTORE RETURNDATASIZE DUP3 MSTORE RETURNDATASIZE PUSH1 0x0 PUSH1 0x20 DUP5 ADD RETURNDATACOPY PUSH2 0x23DD JUMP JUMPDEST PUSH1 0x60 SWAP2 POP JUMPDEST POP POP DUP1 SWAP2 POP POP DUP1 PUSH2 0x2439 JUMPI PUSH1 0x40 MLOAD PUSH32 0x8C379A000000000000000000000000000000000000000000000000000000000 DUP2 MSTORE PUSH1 0x4 ADD DUP1 DUP1 PUSH1 0x20 ADD DUP3 DUP2 SUB DUP3 MSTORE PUSH1 0x23 DUP2 MSTORE PUSH1 0x20 ADD DUP1 PUSH2 0x2865 PUSH1 0x23 SWAP2 CODECOPY PUSH1 0x40 ADD SWAP2 POP POP PUSH1 0x40 MLOAD DUP1 SWAP2 SUB SWAP1 REVERT JUMPDEST JUMPDEST POP POP POP POP POP JUMP JUMPDEST PUSH1 0x0 DUP1 PUSH1 0x3 PUSH1 0x4 SWAP1 SLOAD SWAP1 PUSH2 0x100 EXP SWAP1 DIV PUSH4 0xFFFFFFFF AND SWAP1 POP PUSH1 0x0 DUP1 SLOAD SWAP1 PUSH2 0x100 EXP SWAP1 DIV PUSH4 0xFFFFFFFF AND PUSH4 0xFFFFFFFF AND PUSH1 0x2 PUSH4 0xFFFFFFFF AND EXP PUSH4 0xFFFFFFFF AND DUP2 PUSH4 0xFFFFFFFF AND EQ ISZERO PUSH2 0x24DD JUMPI PUSH1 0x40 MLOAD PUSH32 0x8C379A000000000000000000000000000000000000000000000000000000000 DUP2 MSTORE PUSH1 0x4 ADD DUP1 DUP1 PUSH1 0x20 ADD DUP3 DUP2 SUB DUP3 MSTORE PUSH1 0x30 DUP2 MSTORE PUSH1 0x20 ADD DUP1 PUSH2 0x2888 PUSH1 0x30 SWAP2 CODECOPY PUSH1 0x40 ADD SWAP2 POP POP PUSH1 0x40 MLOAD DUP1 SWAP2 SUB SWAP1 REVERT JUMPDEST PUSH1 0x0 DUP2 SWAP1 POP PUSH1 0x0 DUP5 SWAP1 POP PUSH1 0x0 DUP1 PUSH1 0x0 JUMPDEST PUSH1 0x0 DUP1 SLOAD SWAP1 PUSH2 0x100 EXP SWAP1 DIV PUSH4 0xFFFFFFFF AND PUSH4 0xFFFFFFFF AND DUP2 PUSH4 0xFFFFFFFF AND LT ISZERO PUSH2 0x25D4 JUMPI PUSH1 0x0 PUSH1 0x2 DUP7 PUSH4 0xFFFFFFFF AND DUP2 PUSH2 0x2523 JUMPI INVALID JUMPDEST MOD PUSH4 0xFFFFFFFF AND EQ ISZERO PUSH2 0x2567 JUMPI DUP4 SWAP3 POP PUSH2 0x2542 DUP2 PUSH4 0xFFFFFFFF AND PUSH2 0x1A94 JUMP JUMPDEST SWAP2 POP DUP4 PUSH1 0x1 PUSH1 0x0 DUP4 PUSH4 0xFFFFFFFF AND DUP2 MSTORE PUSH1 0x20 ADD SWAP1 DUP2 MSTORE PUSH1 0x20 ADD PUSH1 0x0 KECCAK256 DUP2 SWAP1 SSTORE POP PUSH2 0x2587 JUMP JUMPDEST PUSH1 0x1 PUSH1 0x0 DUP3 PUSH4 0xFFFFFFFF AND DUP2 MSTORE PUSH1 0x20 ADD SWAP1 DUP2 MSTORE PUSH1 0x20 ADD PUSH1 0x0 KECCAK256 SLOAD SWAP3 POP DUP4 SWAP2 POP JUMPDEST PUSH2 0x25B2 PUSH32 0x0 DUP5 DUP5 PUSH2 0x14A5 JUMP JUMPDEST SWAP4 POP PUSH1 0x2 DUP6 PUSH4 0xFFFFFFFF AND DUP2 PUSH2 0x25C4 JUMPI INVALID JUMPDEST DIV SWAP5 POP DUP1 DUP1 PUSH1 0x1 ADD SWAP2 POP POP PUSH2 0x24ED JUMP JUMPDEST POP PUSH1 0x0 PUSH1 0x1E PUSH4 0xFFFFFFFF AND PUSH1 0x1 PUSH1 0x3 PUSH1 0x0 SWAP1 SLOAD SWAP1 PUSH2 0x100 EXP SWAP1 DIV PUSH4 0xFFFFFFFF AND ADD PUSH4 0xFFFFFFFF AND DUP2 PUSH2 0x2602 JUMPI INVALID JUMPDEST MOD SWAP1 POP DUP1 PUSH1 0x3 PUSH1 0x0 PUSH2 0x100 EXP DUP2 SLOAD DUP2 PUSH4 0xFFFFFFFF MUL NOT AND SWAP1 DUP4 PUSH4 0xFFFFFFFF AND MUL OR SWAP1 SSTORE POP DUP4 PUSH1 0x2 PUSH1 0x0 DUP4 PUSH4 0xFFFFFFFF AND DUP2 MSTORE PUSH1 0x20 ADD SWAP1 DUP2 MSTORE PUSH1 0x20 ADD PUSH1 0x0 KECCAK256 DUP2 SWAP1 SSTORE POP PUSH1 0x1 DUP7 ADD PUSH1 0x3 PUSH1 0x4 PUSH2 0x100 EXP DUP2 SLOAD DUP2 PUSH4 0xFFFFFFFF MUL NOT AND SWAP1 DUP4 PUSH4 0xFFFFFFFF AND MUL OR SWAP1 SSTORE POP DUP6 SWAP7 POP POP POP POP POP POP POP SWAP2 SWAP1 POP JUMP JUMPDEST PUSH1 0x8 PUSH1 0x0 CALLER PUSH20 0xFFFFFFFFFFFFFFFFFFFFFFFFFFFFFFFFFFFFFFFF AND PUSH20 0xFFFFFFFFFFFFFFFFFFFFFFFFFFFFFFFFFFFFFFFF AND DUP2 MSTORE PUSH1 0x20 ADD SWAP1 DUP2 MSTORE PUSH1 0x20 ADD PUSH1 0x0 KECCAK256 PUSH1 0x0 SWAP1 SLOAD SWAP1 PUSH2 0x100 EXP SWAP1 DIV PUSH1 0xFF AND PUSH2 0x2735 JUMPI PUSH1 0x40 MLOAD PUSH32 0x8C379A000000000000000000000000000000000000000000000000000000000 DUP2 MSTORE PUSH1 0x4 ADD DUP1 DUP1 PUSH1 0x20 ADD DUP3 DUP2 SUB DUP3 MSTORE PUSH1 0xC DUP2 MSTORE PUSH1 0x20 ADD DUP1 PUSH32 0x4E6F7420616E206F776E65720000000000000000000000000000000000000000 DUP2 MSTORE POP PUSH1 0x20 ADD SWAP2 POP POP PUSH1 0x40 MLOAD DUP1 SWAP2 SUB SWAP1 REVERT JUMPDEST PUSH1 0x5 SLOAD CALLVALUE EQ PUSH2 0x278F JUMPI PUSH1 0x40 MLOAD PUSH32 0x8C379A000000000000000000000000000000000000000000000000000000000 DUP2 MSTORE PUSH1 0x4 ADD DUP1 DUP1 PUSH1 0x20 ADD DUP3 DUP2 SUB DUP3 MSTORE PUSH1 0x38 DUP2 MSTORE PUSH1 0x20 ADD DUP1 PUSH2 0x2792 PUSH1 0x38 SWAP2 CODECOPY PUSH1 0x40 ADD SWAP2 POP POP PUSH1 0x40 MLOAD DUP1 SWAP2 SUB SWAP1 REVERT JUMPDEST JUMP INVALID POP PUSH13 0x656173652073656E6420606D69 PUSH25 0x44656E6F6D696E6174696F6E602045544820616C6F6E672077 PUSH10 0x7468207472616E736163 PUSH21 0x696F6E5F72696768742073686F756C642062652069 PUSH15 0x7369646520746865206669656C6452 PUSH6 0x66756E642076 PUSH2 0x6C75 PUSH6 0x206973207375 PUSH17 0x706F73656420746F206265207A65726F20 PUSH7 0x6F722045544820 PUSH10 0x6E7374616E6365546865 KECCAK256 PUSH4 0x6F6D6D69 PUSH21 0x6D656E7420686173206265656E207375626D697474 PUSH6 0x647061796D65 PUSH15 0x7420746F205F726563697069656E74 KECCAK256 PUSH5 0x6964206E6F PUSH21 0x20676F20746872757061796D656E7420746F205F72 PUSH6 0x6C6179657220 PUSH5 0x6964206E6F PUSH21 0x20676F20746872754D65726B6C6520747265652069 PUSH20 0x2066756C6C2E204E6F206D6F7265206C65617665 PUSH20 0x2063616E2062652061646465644D657373616765 KECCAK256 PUSH23 0x616C756520697320737570706F73656420746F20626520 PUSH27 0x65726F20666F722045544820696E7374616E6365A2646970667358 0x22 SLT KECCAK256 SWAP3 0xBF PUSH18 0xF739C3359AF7452F396FACBB48383FDBBB63 0xB0 0x28 PUSH23 0xE10E27B85048ED8564736F6C6343000700003364656E6F PUSH14 0x696E6174696F6E2073686F756C64 KECCAK256 PUSH3 0x652067 PUSH19 0x6561746572207468616E20305F6C6576656C73 KECCAK256 PUSH20 0x686F756C64206265206772656174657220746861 PUSH15 0x207A65726F00000000000000000000 "
        },
        "methodIdentifiers": {
          "FIELD_SIZE()": "414a37ba",
          "ROOT_HISTORY_SIZE()": "cd87a3b4",
          "ZERO_VALUE()": "ec732959",
          "addOwner(address)": "7065cb48",
          "addToWhitelist(address)": "e43252d7",
          "commitments(bytes32)": "839df945",
          "currentRootIndex()": "90eeb02b",
          "denomination()": "8bca6d16",
          "deposit(bytes32)": "b214faa5",
          "filledSubtrees(uint256)": "f178e47c",
          "getLastRoot()": "ba70f757",
          "hashLeftRight(address,bytes32,bytes32)": "8ea3099e",
          "hasher()": "ed33639f",
          "isKnownRoot(bytes32)": "6d9833e3",
          "isSpent(bytes32)": "e5285dcc",
          "isSpentArray(bytes32[])": "9fa12d0b",
          "isWhiteListed(address)": "6f9170f6",
          "levels()": "4ecf518b",
          "nextIndex()": "fc7e9c6f",
          "nullifierHashes(bytes32)": "17cc915c",
          "ownerCount()": "0db02622",
          "removeFromWhitelist(address)": "8ab1d681",
          "removeOwner(address)": "173825d9",
          "roots(uint256)": "c2b40ae4",
          "verifier()": "2b7ac3f3",
          "whiteListAddress(address)": "cf52a7b2",
          "withdraw(bytes,bytes32,bytes32,address,address,uint256,uint256)": "21a0adb6",
          "zeros(uint256)": "e8295588"
        }
      }
    }
  }
}